:100000000C946F010C9497010C9497010C94970138
:100010000C9497010C9497010C9497010C94970100
:100020000C9497010C9497010C9497010C949701F0
:100030000C9497010C9497010C9497010C949701E0
:100040000C9471090C9497010C94E1090C94BB0970
:100050000C9497010C9497010C9497010C949701C0
:100060000C94130A0C949701084AD73B3BCE016EBF
:1000700084BCBFFDC12F3D6C74319ABD56833DDAFF
:100080003D00C77F11BED9E4BB4C3E916BAAAABE0E
:10009000000000803F0000407A10F35A00A0724E2A
:1000A00018090010A5D4E80000E87648170000E41D
:1000B0000B54020000CA9A3B000000E1F505000065
:1000C00080969800000040420F000000A0860100CA
:1000D0000000102700000000E8030000000064009A
:1000E000000000000A000000000001000000000005
:1000F0002C76D888DC674F0823DFC1DFAE59E1B129
:10010000B796E5E3E453C63AE651997696E8E6C237
:100110008426EB898C9B62ED407C6FFCEFBC9C9F3E
:1001200040F2BAA56FA5F490055A2AF75C936B6C60
:10013000F9676DC11BFCE0E40D47FEF520E6B50054
:10014000D0ED902E0300943577050080841E0800C2
:1001500000204E0A000000C80C333333330F986E72
:1001600012831141EF8D2114893BE65516CFFEE62F
:10017000DB18D1844B381BF77C1D901DA4BBE424F5
:10018000203284725E228100C9F124ECA1E53D2772
:100190002261636B5F7265717569726564223A747E
:1001A000727565002261636B5F7265717569726556
:1001B00064223A20747275650022677265656E5F0D
:1001C0006C6564223A747275650022677265656EAB
:1001D0005F6C6564223A20747275650022726564F2
:1001E0005F6C6564223A7472756500227265645FA3
:1001F0006C6564223A2074727565002262757A7AA1
:1002000065725F6F6E223A74727565002262757A4C
:100210007A65725F6F6E223A207472756500226D86
:100220006F746F725F6F6E223A7472756500226D23
:100230006F746F725F6F6E223A2074727565002260
:10024000616C6572745F6C6576656C223A20310072
:1002500022616C6572745F6C6576656C223A310060
:1002600022616C6572745F6C6576656C223A20322F
:100270000022616C6572745F6C6576656C223A323F
:1002800000000000002300260029000000000024D8
:100290000027002A0000000000250028002B000491
:1002A000040404040404040202020202020303031D
:1002B0000303030102040810204080010204081017
:1002C00020010204081020000000080002010000C4
:1002D000030407000000000000000000320B11249E
:1002E0001FBECFEFD8E0DEBFCDBF11E0A0E0B1E090
:1002F000E6E9F8E302C005900D92A23FB107D9F7F5
:1003000025E0A2EFB1E001C01D92A83BB207E1F7E2
:1003100011E0CFE6D1E004C02197FE010E949215C2
:10032000CE36D107C9F70E94790B0C94491C0C9466
:100330000000833081F028F4813099F08230A9F0F8
:1003400008958730A9F08830C9F08430B1F48091E5
:1003500080008F7D03C0809180008F778093800024
:10036000089584B58F7784BD089584B58F7DFBCFC4
:100370008091B0008F778093B00008958091B00095
:100380008F7DF9CF1F93CF93DF93282F30E0F901B2
:10039000E953FD4F8491F901ED54FD4FD491F901DA
:1003A000E156FD4FC491CC23A9F0162F81110E9474
:1003B0009901EC2FF0E0EE0FFF1FEB56FD4FA591DA
:1003C000B4918FB7F894EC91111108C0D095DE2349
:1003D000DC938FBFDF91CF911F910895DE2BF8CF73
:1003E000CF93DF9390E0FC01ED54FD4F24918156B3
:1003F0009D4FFC0184918823D1F090E0880F991FD4
:10040000FC01E557FD4FA591B491FC01EB56FD4F62
:10041000C591D491623071F49FB7F8943C91822FCA
:10042000809583238C93E8812E2B28839FBFDF91B7
:10043000CF9108958FB7F894EC912E2B2C938FBF0A
:10044000F6CF3FB7F8948091740490917504A09111
:100450007604B091770426B5A89B05C02F3F19F00C
:100460000196A11DB11D3FBFBA2FA92F982F882734
:10047000BC01CD01620F711D811D911D42E0660F0F
:10048000771F881F991F4A95D1F708958F929F92E1
:10049000AF92BF92CF92DF92EF92FF924B015C013D
:1004A0000E9421026B017C010E9421026C197D09CE
:1004B0008E099F09683E734081059105A8F321E0EC
:1004C000821A9108A108B10888EEC80E83E0D81EF0
:1004D000E11CF11C81149104A104B10429F7FF90DF
:1004E000EF90DF90CF90BF90AF909F908F90089546
:1004F0002FB7F89460917004709171048091720428
:10050000909173042FBF089508950895AF92BF92FC
:10051000CF92DF92EF92FF920F931F93CF93DF93CF
:100520006C017B018B01040F151FEB015E01AE18FE
:10053000BF08C017D10759F06991D601ED91FC9120
:100540000190F081E02DC6010995892B79F7C5014D
:10055000DF91CF911F910F91FF90EF90DF90CF909F
:10056000BF90AF900895FC01538D448D252F30E04E
:10057000842F90E0821B930B541710F0CF960895B0
:1005800001970895FC01918D828D981761F0A28DDD
:10059000AE0FBF2FB11D5D968C91928D9F5F9F73A3
:1005A000928F90E008958FEF9FEF0895FC01918D59
:1005B000828D981731F0828DE80FF11D858D90E0C6
:1005C00008958FEF9FEF0895FC01918D228D892F63
:1005D00090E0805C9F4F821B91098F73992708954B
:1005E0008AEE94E00E94E40221E0892B09F420E0E5
:1005F000822F089580E090E0892B29F00E94F0027C
:1006000081110C9400000895FC01A48DA80FB92F4E
:10061000B11DA35ABF4F2C91848D90E001968F732A
:100620009927848FA689B7892C93A089B1898C9149
:10063000837080648C93938D848D981306C0028898
:10064000F389E02D80818F7D80830895EF92FF9262
:100650000F931F93CF93DF93EC0181E0888F9B8DE5
:100660008C8D98131AC0E889F989808185FF15C09F
:100670009FB7F894EE89FF896083E889F9898081C2
:100680008370806480839FBF81E090E0DF91CF9191
:100690001F910F91FF90EF900895F62E0B8D10E0B3
:1006A0000F5F1F4F0F731127E02E8C8D8E110CC022
:1006B0000FB607FCFACFE889F989808185FFF5CF6D
:1006C000CE010E940403F1CFEB8DEC0FFD2FF11D45
:1006D000E35AFF4FF0829FB7F8940B8FEA89FB89AA
:1006E00080818062CFCFCF93DF93EC01888D882308
:1006F000B9F0AA89BB89E889F9898C9185FD03C085
:10070000808186FD0DC00FB607FCF7CF8C9185FF69
:10071000F2CF808185FFEDCFCE010E940403E9CFA7
:10072000DF91CF91089520911302260F3327331FB5
:1007300021323105ECF42091C004FC0190E080E00E
:10074000243069F082E00895A09113022191AC0158
:100750004D505E4FA40FB52FB11D2C9301968617F7
:1007600098F380911302680F6093130280E008955C
:1007700081E008951092C00481E08093BF0410923C
:100780009A0461E082E10E94C20161E083E10E947B
:10079000C201E9EBF0E080818E7F808380818D7FD4
:1007A000808388E48093B80085E48093BC0008953A
:1007B000CF93DF9391E09093F2018823B9F0C09139
:1007C000B800D091BA008091BC008A7B8093BC00B5
:1007D00060E082E10E94C20160E083E10E94C20108
:1007E0000E94BA03D093BA00C093B800DF91CF91B2
:1007F00008958F929F92AF92BF92CF92DF92EF9225
:10080000FF920F931F93CF93DF93D091E904D132DE
:1008100008F0D7C0182FC091E8040E9421026B0194
:100820007C018091C00481116BC082E08093C00480
:100830001093BF048FEF8093BE041092BD04D09339
:10084000BC04A8ECB4E0ECE9F4E080E0D81391C07B
:1008500010929B0480919B04CC0FC82BC0939B04E7
:1008600080919A04813009F088C010929A040E9405
:1008700021026B017C0180919B048093BB008091DD
:10088000C2049091C304A091C404B091C504892B03
:100890008A2B8B2BA1F00E9421020091C20410919F
:1008A000C3042091C4043091C5046C197D098E09DC
:1008B0009F09061717072807390708F442C08091D7
:1008C000BC0083FDD8CF85EC8093BC000E94210240
:1008D0006B017C018091C004823009F450C080918A
:1008E000BE048F3F09F46FC08091BE04803209F4CA
:1008F0006CC08091BE04803309F469C084E026C0D6
:100900008091C2049091C304A091C404B091C50425
:10091000892B8A2B8B2B09F484CF0E942102809093
:10092000C2049090C304A090C404B090C5046C1994
:100930007D098E099F0986169706A806B90608F054
:1009400070CF8091C1040E94D80385E01092C70443
:100950001092E9041092C604DF91CF911F910F917C
:10096000FF90EF90DF90CF90BF90AF909F908F90CF
:1009700008959D9191938F5F69CF85EEA5CF80916A
:10098000C2049091C304A091C404B091C504892B02
:100990008A2B8B2B09F49ECF0E9421020091C20466
:1009A0001091C3042091C4043091C5046C197D09D1
:1009B0008E099F09061717072807390708F08ACFFD
:1009C000C0CF81E0C3CF80E0C1CF82E0BFCF83E062
:1009D000BDCF0F931F93CF93DF938A01E901209737
:1009E00011F4C7E8D5E091E09093C6048093E80441
:1009F0001092C7041092E904E881F9810190F08116
:100A0000E02DCE010995E881F9810190F081E02D7A
:100A1000D8016C91CE01099581E00E94F90391E023
:100A2000811190E0892FDF91CF911F910F9108954F
:100A30000895E091790480917804E81730F4F0E0AB
:100A4000E658FB4F808190E008958FEF9FEF089567
:100A500090917904809178042FEF3FEF981748F434
:100A6000E92FF0E0E658FB4F208130E09F5F909344
:100A70007904C90108958091780490917904891BC3
:100A8000990B0895CF92DF92EF92FF920F931F93ED
:100A9000CF93DF937C01CB018A012091C6042223EE
:100AA00089F0EB016B01C40ED51ECC15DD0569F094
:100AB0006991D701ED91FC910190F081E02DC70182
:100AC0000995F3CF642F0E949303C801DF91CF9162
:100AD0001F910F91FF90EF90DF90CF900895CF93EB
:100AE000DF931F92CDB7DEB769832091C60422231E
:100AF000F9F02091E904203258F021E030E0FC01C7
:100B00003383228390E080E00F90DF91CF910895AE
:100B10008091C704E82FF0E0E853FB4F9981908360
:100B20008F5F8093C7048093E90481E090E0ECCF6D
:100B300061E0CE0101960E949303F7CF90E080E040
:100B400008952F923F924F925F926F927F928F9271
:100B50009F92AF92BF92CF92DF92EF92FF920F934C
:100B60001F93CF93DF93CDB7DEB72E970FB6F894D0
:100B7000DEBF0FBECDBF8B836E834E8738872F833A
:100B8000180147010E9478026B017C0181149104D5
:100B900021F487E8882E85E0982E2B81220F2C8364
:100BA0003E85A32EB12C432F41954D831A82198285
:100BB00010E001E0C101B0E0A0E089879A87AB872F
:100BC000BC87A981BA81AA15BB050CF016C1009398
:100BD000C604BB81B093E8041092C7041092E904E4
:100BE000D401ED91FC910190F081E02D6E81C40162
:100BF000099581E00E94F9030E9421022B013C012A
:100C00008091C00481116EC0BE85BD87B13210F0E5
:100C100020E22D870093C0040093BF043FEF309380
:100C2000BE041092BD048D8581508093BC04009356
:100C30009B0480919B044C81842B80939B04809126
:100C40009A04813009F098C010929A040E942102FF
:100C50002B013C0180919B048093BB008091C204D6
:100C60009091C304A091C404B091C504892B8A2B30
:100C70008B2BA1F00E9421022091C2043091C30469
:100C80004091C4045091C5046419750986099709F7
:100C9000261737074807590708F445C08091BC005C
:100CA00083FDD8CF55EC5093BC000E9421022B014C
:100CB0003C018091C004813009F462C08091BD0480
:100CC0009D85891718F4A091BD04AD87ACE9B4E007
:100CD000EAE7F4E080E02D85821751F19D91919330
:100CE0008F5FF9CF8091C2049091C304A091C40496
:100CF000B091C504892B8A2B8B2B09F481CF0E94DC
:100D000021022091C2043091C3044091C404509147
:100D1000C504641975098609970926173707480716
:100D2000590708F06DCF8091C1040E94D8031D8639
:100D3000109279043D8530937804D401ED91FC91B3
:100D40000084F185E02DC4010995892B09F44AC07E
:100D500021143104B9F5D401ED91FC910284F3859D
:100D6000E02DC4010995EF81F885E10FF11D17FD14
:100D7000FA9580831F5FE1CF85EE8093BC0095CF0D
:100D80008091C2049091C304A091C404B091C504A1
:100D9000892B8A2B8B2B09F48CCF0E942102209166
:100DA000C2043091C3044091C4045091C504641935
:100DB000750986099709261737074807590708F064
:100DC00078CFB1CF0E9478026C197D098E099F09F6
:100DD00029853A854B855C856217730784079507DB
:100DE00008F4B9CF49815A814A0D5B1D5A83498362
:100DF0005E858D81580F5E87E4CE21143104C1F0E9
:100E00000E947802AB01BC014C195D096E097F0993
:100E1000C101B0E0A0E0481759076A077B0740F01E
:100E2000812F012E000C990B8A159B050CF41FEFE6
:100E3000812F2E960FB6F894DEBF0FBECDBFDF9187
:100E4000CF911F910F91FF90EF90DF90CF90BF90C7
:100E5000AF909F908F907F906F905F904F903F905A
:100E60002F9008952F923F924F925F926F927F92B0
:100E70008F929F92AF92BF92CF92DF92EF92FF92AA
:100E80000F931F93CF93DF934C015B016A013901EC
:100E900028011701C3E9D5E0E980FA8008EE13E0E4
:100EA00026E935E04EE06BE388810E94A1058B8145
:100EB0009C81982789279827F401918380838D81CD
:100EC0009E81982789279827F501918380838F81B8
:100ED0009885982789279827F601918380838B85A9
:100EE0009C85982789279827F301918380838D8596
:100EF0009E85982789279827F201918380838F8583
:100F00009889982789279827F10191838083DF9119
:100F1000CF911F910F91FF90EF90DF90CF90BF90F6
:100F2000AF909F908F907F906F905F904F903F9089
:100F30002F9008957F928F929F92AF92BF92CF92FF
:100F4000DF92EF92FF920F931F93CF93DF9300D026
:100F5000CDB7DEB7A82E962E742E822EB02E08EEB8
:100F600013E09E012E5F3F4F41E00E94A1058823C0
:100F7000C1F1872D8819990BAC014F5F5F4F81E05C
:100F800090E002C0880F991F8A94E2F70197042E1F
:100F900001C0880F0A94EAF72B2D01C0220F4A9551
:100FA000EAF7B82EB0949A81B92282238B298A83DA
:100FB00089839701AE014F5F5F4F692D8A2D0E9493
:100FC000E9040F900F90DF91CF911F910F91FF9047
:100FD000EF90DF90CF90BF90AF909F908F907F90D9
:100FE000089580E0EECFFC0180819181009711F09F
:100FF0000C941D180895CF93DF93DC0114962D9166
:101000003C911597232B79F0FB01CD91DC91608108
:101010007181CE010E948119009729F08C1B9D0BD4
:10102000DF91CF9108958FEF9FEFFACF0F931F932A
:10103000CF93DF93EC0188819981009759F02A8141
:101040003B812617370730F081E0DF91CF911F9168
:101050000F9108958B016F5F7F4F0E94A618009734
:1010600059F0998388831B830A832C813D81232B2C
:1010700059F7FC011082E8CF80E0E7CFEF92FF92B2
:101080000F931F93CF93DF93EC018B01198218828A
:101090001B821A821D821C82CB010E94B6117C0128
:1010A000BC01CE010E94160828813981811113C02C
:1010B0002115310519F0C9010E941D1819821882E5
:1010C0001D821C821B821A82DF91CF911F910F918A
:1010D000FF90EF900895FD82EC82B801C901DF9185
:1010E000CF911F910F91FF90EF900C94AF1185ED70
:1010F0008093BC008091C2049091C304A091C40469
:10110000B091C5040796A11DB11D23E0B695A79522
:10111000979587952A95D1F72091BC0024FD03C0AF
:101120001092C00408954091C2045091C30460918C
:10113000C4047091C504452B462B472B69F30097D7
:10114000A105B10541F02AE22A95F1F700C0019707
:10115000A109B109E1CF8091C1040C94D8034F9249
:101160005F926F927F928F929F92AF92BF92EF9217
:10117000FF920F931F93CF93DF93CDB7DEB7CC5081
:10118000D1400FB6F894DEBF0FBECDBF809066048D
:1011900090906704A0906804B0906904A501940140
:1011A000C501B4010E9467179E012F5F3E4F790170
:1011B000811119C024013501E89477F82FEF3FEF32
:1011C0004FE75FE7C301B2010E94671781117EC03C
:1011D0002FEF3FEF4FE75FE7C301B2010E94F61325
:1011E00018160CF073C068E371E0C7010E946C1917
:1011F0008091480442E351E0882311F04DE251E030
:101200008091430422E331E0882311F02DE231E0A4
:1012100060914A0470914B04E0914C04F0914D04AC
:101220008091520481115AC082E391E05F934F9301
:101230003F932F93FF93EF937F936F939F938F939E
:10124000FF92EF928DE391E09F938F9380E591E081
:101250009F938F9381E08F931F928E010F5F1F4F9B
:101260001F930F930E949B19F80101900020E9F74A
:101270003197AF01401B510BB8018AEE94E00E94F8
:10128000860242E050E062ED71E08AEE94E00E9456
:101290008602109243040FB6F894DEBF0FBECDBF96
:1012A000C45FDE4F0FB6F894DEBF0FBECDBFDF9137
:1012B000CF911F910F91FF90EF90BF90AF909F90B3
:1012C0008F907F906F905F904F900895870122E0FC
:1012D00041E0C501B4010E9491118ACF8DE291E0F5
:1012E000A5CF1F920F920FB60F9211242F933F9309
:1012F0008F939F93AF93BF938091700490917104EB
:10130000A0917204B091730430916F0423E0230F15
:101310002D3758F50196A11DB11D20936F048093C0
:10132000700490937104A0937204B093730480913D
:10133000740490917504A0917604B091770401969D
:10134000A11DB11D8093740490937504A09376043D
:10135000B0937704BF91AF919F918F913F912F915F
:101360000F900FBE0F901F90189526E8230F02963E
:10137000A11DB11DD2CF1F920F920FB60F92112453
:101380002F933F934F935F936F937F938F939F938D
:10139000AF93BF93EF93FF938AEE94E00E94040310
:1013A000FF91EF91BF91AF919F918F917F916F913D
:1013B0005F914F913F912F910F900FBE0F901F9013
:1013C00018951F920F920FB60F9211242F938F939F
:1013D0009F93EF93FF93E091FA04F091FB048081D7
:1013E000E0910005F091010582FD1BC09081809184
:1013F00003058F5F8F7320910405821741F0E09100
:101400000305F0E0E651FB4F958F80930305FF91B4
:10141000EF919F918F912F910F900FBE0F901F9082
:1014200018958081F4CF1F920F920FB60F9211245E
:101430002F933F934F935F936F937F938F939F93DC
:10144000AF93BF93EF93FF938091B900887F80366D
:1014500009F44AC0F0F5883209F4A7C018F58031C4
:1014600009F49BC0B8F4882309F4F9C0883009F462
:1014700094C0FF91EF91BF91AF919F918F917F9118
:101480006F915F914F913F912F910F900FBE0F90F1
:101490001F901895883109F488C0803251F78093E5
:1014A000BE0414C0803409F49DC040F48033B9F305
:1014B0008833F9F68093BE0485ECB0C0803509F41A
:1014C00085C0883509F496C0883499F60E9477085B
:1014D000D0CF883909F48CC038F5883729F050F41A
:1014E000883611F0803729F683E08093C00410928B
:1014F000350257C0883809F47BC0803919F080382C
:1015000009F0B7CF80913502803208F071C0E091C8
:10151000350281E08E0F809335028091BB00F0E0B0
:10152000EB5EFD4F80833DC0803B39F0E0F4803AB4
:1015300009F479C0883A09F09CCF84E08093C00414
:101540001092140210921302E0913802F0913902C5
:1015500009958091130281110FC081E080931302DD
:101560001092F30109C0803C09F4A6CF883C09F42D
:10157000A3CF883B09F07DCFE091140281E08E0F6C
:1015800080931402F0E0ED50FE4F80818093BB0009
:10159000909114028091130229C080919B04809342
:1015A000BB0085EC8093BC0064CF9091BD0480911A
:1015B000BC04981758F5E091BD0481E08E0F80932C
:1015C000BD04F0E0E456FB4F8081E9CFE091BD041B
:1015D00081E08E0F8093BD048091BB00F0E0E45663
:1015E000FB4F80839091BD048091BC049817C8F292
:1015F00085E8D8CFE091BD0481E08E0F8093BD04D3
:101600008091BB00F0E0E456FB4F80838091BF04E3
:1016100081115CCF81E080939A0484EA8093BC00BE
:101620001092C00426CF85EC8093BC001092C004B9
:1016300080913502803230F4E0913502F0E0EB5ECB
:10164000FD4F10826091350270E0E0913602F0911A
:10165000370285E192E00995109235020ACF109287
:10166000BE0434CFEAEEF4E01382128288EE93E0F7
:10167000A0E0B0E084839583A683B7832DE031E0BA
:101680003183208325EC30E03587248724EC30E05B
:101690003787268720EC30E0318B208B21EC30E03F
:1016A000338B228B22EC30E0358B248B26EC30E020
:1016B000378B268B118E128E138E148EE7E8F5E091
:1016C0001382128284839583A683B7838FE191E08E
:1016D00091838083E3E9F5E088E6808312821182BA
:1016E00088EF9AE2A0E0B0E0818B928BA38BB48B61
:1016F0000895CF93DF93CDB7DEB76D970FB6F8940B
:10170000DEBF0FBECDBF789484B5826084BD84B542
:10171000816084BD85B5826085BD85B5816085BDEC
:1017200080916E00816080936E00109281008091A4
:10173000810082608093810080918100816080932C
:101740008100809180008160809380008091B10051
:1017500084608093B1008091B00081608093B0007C
:1017600080917A00846080937A0080917A00826010
:1017700080937A0080917A00816080937A008091D2
:101780007A00806880937A001092C100E091FA0498
:10179000F091FB0482E08083E091F604F091F7047D
:1017A0001082E091F804F091F90480E180831092B6
:1017B0000205E091FE04F091FF0486E08083E09151
:1017C000FC04F091FD04808180618083E091FC0441
:1017D000F091FD04808188608083E091FC04F091A9
:1017E000FD04808180688083E091FC04F091FD0419
:1017F00080818F7D808368EC70E080E090E00E94C3
:10180000460261E085E00E94F00161E086E00E940E
:10181000F00161E087E00E94F00161E088E00E9451
:10182000F00160E085E00E94C20160E086E00E9475
:10183000C20160E087E00E94C20161E088E00E948E
:10184000C20162E084E00E94F001109279041092DB
:1018500078041092C7041092E9040E94BA0384E845
:1018600092E0909339028093380285E892E0909359
:1018700037028093360260E27EE480E090E00E94CE
:10188000460288E680939305109295051092940580
:1018900088EF9AE2A0E0B0E08093A4059093A505BC
:1018A000A093A605B093A705F12CE12C01E023E05D
:1018B00042E06BE688E60E949A07E0909405F0907B
:1018C000950500E022E044E06BE1809193050E94E1
:1018D0009A07E0909405F090950522E044E06CE1D1
:1018E000809193050E949A07A0909405B090950569
:1018F000D0909305750108EE13E09E012F5F3F4FD6
:1019000041E06BE68D2D0E94A10589818F7B898343
:10191000898F9501AE01475E5F4F6BE68D2D0E946A
:10192000E90481E080936E04E0909405F0909505C1
:1019300000E022E044E06CE1809193050E949A0768
:10194000E0909405F090950522E044E06BE18091F1
:1019500093050E949A076CE271E080E090E00E949B
:10196000460280916E04882309F479C032E3C32EC5
:10197000D12C812C912C5401412C512C32011A8EE6
:101980001B8E1C8E1D8E9E012F5F3F4F79018E0195
:10199000095F1F4F245F3F4FAE014D5E5F4FBE0199
:1019A0006B5E7F4FCE0147960E9432078F89988DDC
:1019B000092E000CAA0BBB0B2A8D3B8D4C8D5D8D27
:1019C000280F391F4A1F5B1F2A8F3B8F4C8F5D8F5B
:1019D0008D899E89092E000CAA0BBB0B480E591E3F
:1019E0006A1E7B1E8B899C89092E000CAA0BBB0BDF
:1019F000880E991EAA1EBB1E6AE070E080E090E08F
:101A00000E94460231E0C31AD10809F0BCCF22E39C
:101A1000C22ED12CE12CF12C6A8D7B8D8C8D9D8D6D
:101A2000A70196010E941A1530933D0420933C04AF
:101A3000C301B201A70196010E941A153093410417
:101A400020934004C501B401A70196010E941A1514
:101A500030933F0420933E0481E0809342040E942F
:101A600078022B013C0111E08AEE94E00E94E4022E
:101A70001C01892B09F4CBC18AEE94E00E94C202BA
:101A800020913A0430913B048A3019F08D3009F0EE
:101A9000ADC11216130644F7265C3D4FF9011082C2
:101AA00047E050E065ED71E08AE392E00E9473192F
:101AB000892B39F41093490410923B0410923A0494
:101AC000D3CF49E050E06DED71E08AE392E00E94EF
:101AD0007319892B19F410924904EECF49E050E0B4
:101AE00067EE71E08AE392E00E947319892B21F37B
:101AF0001E861D86188A1F861A8A198AEAE3F2E072
:101B000001900020E9F79F012B5332407901B90180
:101B1000CE010D960E9416082D853E8581111AC1B1
:101B20002115310519F0C9010E941D181E861D8658
:101B30001A8A198A188A1F8661E772E0CE01019617
:101B40000E943E08BE016F5F7F4FCE010D960E943E
:101B5000FB0701E00196A9F460E672E0CE0107966A
:101B60000E943E08BE01695F7F4FCE010D960E9424
:101B7000FB0701E0019609F400E0CE0107960E9400
:101B8000F307CE0101960E94F307002309F4EAC08F
:101B900082E090E090935904809358046EE272E0E2
:101BA000CE0101960E943E08BE016F5F7F4FCE01BD
:101BB0000D960E94FB0701E00196A9F46EE172E028
:101BC000CE0107960E943E08BE01695F7F4FCE019D
:101BD0000D960E94FB0701E0019609F400E0CE019A
:101BE00007960E94F307CE0101960E94F307002397
:101BF00009F4F0C0109360046CE072E0CE0101962D
:101C00000E943E08BE016F5F7F4FCE010D960E947D
:101C1000FB0701E00196A9F46BEF71E0CE01079696
:101C20000E943E08BE01695F7F4FCE010D960E9463
:101C3000FB0701E0019609F400E0CE0107960E943F
:101C4000F307CE0101960E94F307002309F4C5C0F3
:101C5000109361046BEE71E0CE0101960E943E0884
:101C6000BE016F5F7F4FCE010D960E94FB0701E022
:101C70000196A9F46CED71E0CE0107960E943E0832
:101C8000BE01695F7F4FCE010D960E94FB0701E008
:101C9000019609F400E0CE0107960E94F307CE01F9
:101CA00001960E94F307002309F49AC010935A0486
:101CB0006AEC71E0CE0101960E943E08BE016F5FA2
:101CC0007F4FCE010D960E94FB0701E00196A9F41B
:101CD00069EB71E0CE0107960E943E08BE01695F84
:101CE0007F4FCE010D960E94FB0701E0019609F49B
:101CF00000E0CE0107960E94F307CE0101960E94F4
:101D0000F307002309F46FC01093020164EA71E045
:101D1000CE0101960E943E08BE016F5F7F4FCE014B
:101D20000D960E94FB07019651F460E971E0CE0127
:101D300007960E943E08CE0107960E94F307CE0147
:101D400001960E94F30710924804CE010D960E945E
:101D5000F307B2CEFA8AE98A6AE372E0C9010E9407
:101D60006C19EACE60E572E0CE0101960E943E0851
:101D7000BE016F5F7F4FCE010D960E94FB0701E011
:101D80000196A9F46FE372E0CE0107960E943E0827
:101D9000BE01695F7F4FCE010D960E94FB0701E0F7
:101DA000019609F400E0CE0107960E94F307CE01E8
:101DB00001960E94F307002341F088248394912C1C
:101DC0009092590480925804E9CE109259041092CE
:101DD0005804E4CE109260040FCF109261043ACF01
:101DE00010925A0465CF1092020190CF2F3F51E01C
:101DF00035070CF061CEA9014F5F5F4F50933B0454
:101E000040933A04265C3D4FF90180832DCE8091AA
:101E10006E04882309F4E3C080916A0490916B04F6
:101E2000A0916C04B0916D0453014201881A990A83
:101E3000AA0ABB0AD501C40184369105A105B105E2
:101E400008F4CDC080914204882309F4C9C19E01E1
:101E50002F5F3F4F79018E01095F1F4F245F3F4F76
:101E6000AE014D5E5F4FBE016B5E7F4FCE01479668
:101E70000E9432076D897E89072E000C880B990B12
:101E80000E94FD134B015C016B897C89072E000CBD
:101E9000880B990B0E94FD136B017C01A501940135
:101EA000C501B4010E945C144B015C01A7019601BD
:101EB000C701B6010E945C149B01AC01C501B401CD
:101EC0000E9499150E9423176B017C016F89788D00
:101ED000072E000C880B990B0E94FD13A701960199
:101EE0000E9418166A8F7B8F8C8F9D8F60914004A3
:101EF00070914104072E000C880B990B0E94FD1372
:101F00004B015C0160913E0470913F04072E000C70
:101F1000880B990B0E94FD136B017C01A5019401B4
:101F2000C501B4010E945C144B015C01A70196013C
:101F3000C701B6010E945C149B01AC01C501B4014C
:101F40000E9499150E9423176B017C0160913C044B
:101F500070913D04072E000C880B990B0E94FD1315
:101F6000A70196010E9418166B017C0120E030E069
:101F700044E353E46A8D7B8D8C8D9D8D0E945C14AF
:101F80002BED3FE049E450E40E9477164B015C01E1
:101F900020E030E044E353E4C701B6010E945C1442
:101FA0002BED3FE049E450E40E9477169B01AC0121
:101FB000C501B4010E949815DC01CB01BF77809365
:101FC000660490936704A0936804B09369044092F8
:101FD0006A0450926B0460926C0470926D04EBEC96
:101FE000F2E08491E7EBF2E0F490E3EAF2E0E490CF
:101FF000EE2099F081110E949901EE2DF0E0EE0F94
:10200000FF1FEF57FD4FA591B491EC91FE2291E097
:1020100080E009F490E0292E382E122D11700E94D4
:10202000780220910101121741F0609344047093EB
:1020300045048093460490934704C0904404D09094
:102040004504E0904604F09047046C197D098E0920
:102050009F096333710581059105D8F180910001D5
:102060001817B9F110930001232899F581E08093A6
:102070004304109260041092610410925A048093F9
:1020800002011092590410925804109248041092C0
:10209000520410924A0410924B0410924C04109275
:1020A0004D0410924E0410924F041092500410925E
:1020B000510460E085E00E94C20160E086E00E9479
:1020C000C20160E087E00E94C20161E088E00E94F6
:1020D000C2011093010180916E04882309F452C05B
:1020E0000E9478026B017C0120E030E040EF51E477
:1020F000609166047091670480916804909169040E
:102100000E94101718160CF06FC0809152048111B4
:102110000BC081E080935204C0924E04D0924F04D1
:10212000E0925004F092510480914E0490914F043B
:10213000A0915004B0915104C81AD90AEA0AFB0AC6
:10214000C0924A04D0924B04E0924C04F0924D04A9
:1021500080914904811116C038EBC3163BE0D306C9
:10216000E104F10478F08091480481110BC081E012
:1021700080934804809360048093610480935A04A0
:10218000109202018091620490916304A091640412
:10219000B091650453014201881A990AAA0ABB0A40
:1021A000D501C401883E9340A105B10550F040928D
:1021B00062045092630460926404709265040E9409
:1021C000AF080E9478026B017C011091610480913C
:1021D000600411114BC0811149C010925B0470C0A2
:1021E00080E090E0DC01EBCE1092520410924A04A1
:1021F00010924B0410924C0410924D0410924E0415
:1022000010924F041092500410925104BBCF61E021
:10221000882319F385E00E94C2016091020188E0E1
:102220000E94C20160915B04111101C060E086E070
:102230000E94C20180915A04882309F46BC08091E6
:102240005804909159040297ECF161E087E00E94F4
:10225000C20180E090E0892B09F401CC0E94F002D9
:10226000882309F4FCCB0E940000F9CB40915C0468
:1022700050915D0460915E0470915F0446015701C6
:10228000841A950AA60AB70AB501A401443F514031
:102290006105710570F090915B0421E092279093A5
:1022A0005B04C0925C04D0925D04E0925E04F09204
:1022B0005F04112309F4ABCF60915B048111AACFB5
:1022C00060E0A8CF8091540490915504A0915604E9
:1022D000B091570446015701881A990AAA0ABB0A05
:1022E000D501C4018A3F9105A105B10508F4B1CF1C
:1022F0006091530481E068276093530487E00E9453
:10230000C201C0925404D0925504E0925604F09257
:1023100057049FCF60E087E00E94C20110925304EF
:1023200098CFEF920F931F93CF93DF93E80134E0A0
:1023300047FD34E1042E000C550B57FF03C05195A7
:1023400041955109E32E022F242FAE010E94BF11A7
:10235000CE01DF91CF911F910F91EF900895FB0176
:10236000DC0105900D920020E1F70895FC01059035
:102370000020E9F7809590958E0F9F1F0895A9E0A2
:10238000B0E0E5ECF1E10C943F156A01F22EB02EBD
:10239000102FFBE3AF2EA01608F41BE31F5F012FE5
:1023A00027E0AE014F5F5F4F0E941E13BC01898181
:1023B000982F9970913009F43FC09BE2E1FC04C072
:1023C0009E2D9170E0FC3AC05E2D5071E82FE870B0
:1023D00083FF46C084E0911101C083E0EF2DE81B2C
:1023E0008F1508F0E0E0D6018E2F20E2552351F141
:1023F000992329F0D6019C93C60101966C019601A0
:102400002D5F3F4FE2FE24C08EE4D6018C9391E411
:1024100011969C93119712968C93D9018E2F90E26E
:1024200081111BC0E20FF32FF11D10828EEF9FEF81
:102430002996ECE00C945B159DE2C6CF90E2C4CFE8
:102440002D9381508111FCCFCE0ED11CE0E0D0CF76
:102450008EE6D6018C9391E6DBCF9D938150E0CF41
:10246000482F447082FF3DC084E0911101C083E099
:102470008F1510F4EF2DE81BD6018E2F20E2552387
:1024800009F1992329F0D6019C93C60101966C01AC
:1024900096012D5F3F4FE2FE1BC089E4D6018C936D
:1024A0008EE411968C93119786E412968C93D90141
:1024B0008E2F90E2882309F4B5CF9D938150FACFF7
:1024C0002D9381508111FCCFCE0ED11CE0E0D9CFED
:1024D00089E6D6018C938EE611968C93119786E649
:1024E000E4CF9B0177FF02C030E020E0A1E0B0E044
:1024F000911102C0B0E0A0E0F9013196AE0FBF1F0C
:102500008B2C912CBB2009F461C05401EFEFAE1A63
:10251000BE0AAA0DBB1DFA161B0619F014F04F2DAA
:102520004A1B511188C0E3FC59C07601A42FB0E2C8
:10253000A1114FC0C40ED11C992309F45BC040E027
:10254000D6011196F60190836D01552309F448C018
:10255000012F060F9A81582F507184FF03C09133C9
:1025600009F4015010160CF047C0093008F008E0DB
:10257000EEE2FE2E5B01A01AB108850191948194D0
:1025800091082F3F320729F4D601FC92F6013196CB
:102590006F016217730794F1021713077CF5DB01D3
:1025A000A21BB30BAA24A394B12CAC0EBD1EAA0D82
:1025B000BB1D11968C9121503109D6011196281519
:1025C0003905F4F0F60180836D01DBCFB12CA12C2D
:1025D000A0CFF701B1937F01A150AACF9111B0CF45
:1025E000D601942F50E302C05D9391509111FCCF1E
:1025F000C40ED11C40E0ACCF01E0BACF80E3DBCF0A
:102600006217730731F4963388F4953311F4552328
:1026100069F0F6018083FD01842F90E2811108C0EA
:10262000A40FB11D1C9290E080E002CF81E3F1CFB6
:1026300091938150F3CF911183CF8ACF283008F046
:1026400027E03327DA01990F311D87FD916000964D
:102650006105710539F432602E5F3D9330E32A95B0
:10266000E1F708959F3F30F080387105610509F06A
:102670003C5F3C5F3D93913008F08068911DDF9393
:10268000CF931F930F93FF92EF92192F987F9695F8
:10269000E92F96959695E90FFF27E051FF4F99276F
:1026A0003327EE24FF24A701E7010590089407943F
:1026B00028F4360FE71EF81E491F511D660F771FBD
:1026C000881F991F0694A1F70590079428F4E70E38
:1026D000F81E491F561FC11D770F881F991F661FBF
:1026E0000694A1F70590079428F4F80E491F561F89
:1026F000C71FD11D880F991F661F771F0694A1F76A
:102700000590079420F4490F561FC71FD81F990F33
:10271000661F771F881F0694A9F78491109517707C
:1027200041F0D695C79557954795F794E7941A9534
:10273000C1F7E6E9F0E0689415901591359165913F
:10274000959105907FE27395E118F10A430B560BC2
:10275000C90BD009C0F7E10CF11E431F561FC91F5A
:10276000D01D7EF4703311F48A95E6CFE8940150C1
:1027700030F0080F0AF40027021708F4202F2395E1
:10278000022F7A3328F079E37D932A95E9F710C078
:102790007D932A9589F606949795679537951795B1
:1027A0001794E118F10A430B560BC90BD00998F0A6
:1027B00023957E9173957A3308F070E37C93201310
:1027C000B8F77E9170617D9330F0839571E37D93CE
:1027D00070E32A95E1F71124EF90FF900F911F917C
:1027E000CF91DF91992787FD909508950E94381425
:1027F00008F481E00895E89409C097FB3EF49095B1
:102800008095709561957F4F8F4F9F4F9923A9F0C9
:10281000F92F96E9BB279395F69587957795679558
:10282000B795F111F8CFFAF4BB0F11F460FF1BC09C
:102830006F5F7F4F8F4F9F4F16C0882311F096E92F
:1028400011C0772321F09EE8872F762F05C06623DD
:1028500071F096E8862F70E060E02AF09A95660F96
:10286000771F881FDAF7880F9695879597F908954F
:10287000990F0008550FAA0BE0E8FEEF1616170691
:10288000E807F907C0F012161306E407F50798F0F9
:10289000621B730B840B950B39F40A2661F0232B12
:1028A000242B252B21F408950A2609F4A140A6958E
:1028B0008FEF811D811D08950E946F140C94E01408
:1028C0000E94D21438F00E94D91420F0952311F000
:1028D0000C94C9140C94CF1411240C9414150E9458
:1028E000F11470F3959FC1F3950F50E0551F629F4F
:1028F000F001729FBB27F00DB11D639FAA27F00D59
:10290000B11DAA1F649F6627B00DA11D661F829F7F
:102910002227B00DA11D621F739FB00DA11D621F64
:10292000839FA00D611D221F749F3327A00D611D81
:10293000231F849F600D211D822F762F6A2F112463
:102940009F5750409AF0F1F088234AF0EE0FFF1F96
:10295000BB1F661F771F881F91505040A9F79E3FED
:10296000510580F00C94C9140C9414155F3FE4F3E6
:10297000983ED4F3869577956795B795F795E79543
:102980009F5FC1F7FE2B880F911D9695879597F94C
:10299000089597F99F6780E870E060E008959FEFE1
:1029A00080EC089500240A941616170618060906E6
:1029B000089500240A9412161306140605060895B5
:1029C000092E0394000C11F4882352F0BB0F40F43D
:1029D000BF2B11F460FF04C06F5F7F4F8F4F9F4F7D
:1029E000089557FD9058440F551F59F05F3F71F0FF
:1029F0004795880F97FB991F61F09F3F79F0879566
:102A00000895121613061406551FF2CF4695F1DFEE
:102A100008C0161617061806991FF1CF869571057E
:102A2000610508940895E894BB2766277727CB01B2
:102A300097F90895052E97FB1EF400940E94311516
:102A400057FD07D00E94701507FC03D04EF40C947C
:102A5000311550954095309521953F4F4F4F5F4F21
:102A6000089590958095709561957F4F8F4F9F4FFA
:102A700008952F923F924F925F926F927F928F9222
:102A80009F92AF92BF92CF92DF92EF92FF920F93FD
:102A90001F93CF93DF93CDB7DEB7CA1BDB0B0FB607
:102AA000F894DEBF0FBECDBF09942A8839884888C4
:102AB0005F846E847D848C849B84AA84B984C8845A
:102AC000DF80EE80FD800C811B81AA81B981CE0F51
:102AD000D11D0FB6F894DEBF0FBECDBFED01089536
:102AE000A1E21A2EAA1BBB1BFD010DC0AA1FBB1F12
:102AF000EE1FFF1FA217B307E407F50720F0A21B84
:102B0000B30BE40BF50B661F771F881F991F1A94F0
:102B100069F760957095809590959B01AC01BD011A
:102B2000CF010895EE0FFF1F0590F491E02D099459
:102B30005058BB27AA270E94B0150C94E0140E949D
:102B4000D21438F00E94D91420F039F49F3F19F4C0
:102B500026F40C94CF140EF4E095E7FB0C94C91402
:102B6000E92F0E94F11458F3BA176207730784071C
:102B7000950720F079F4A6F50C9413150EF4E09562
:102B80000B2EBA2FA02D0B01B90190010C01CA0127
:102B9000A0011124FF27591B99F0593F50F4503ED2
:102BA00068F11A16F040A22F232F342F4427585FC4
:102BB000F3CF469537952795A795F0405395C9F7DC
:102BC0007EF41F16BA0B620B730B840BBAF0915094
:102BD000A1F0FF0FBB1F661F771F881FC2F70EC033
:102BE000BA0F621F731F841F48F487957795679506
:102BF000B795F7959E3F08F0B0CF9395880F08F0F2
:102C00009927EE0F9795879508950E94D21460F04A
:102C100080E891E009F49EEF0E94D91428F040E882
:102C200051E071F45EEF0CC00C94CF140C941315AA
:102C3000E92FE0780E94F11440F3092E052AB1F340
:102C4000261737074807590738F00E2E07F8E025F2
:102C500069F0E025E0640AC0EF6307F8009407FA22
:102C6000DB01B9019D01DC01CA01AD01EF930E94B6
:102C70008E160E94E0140E9448165F91552339F089
:102C80002BED3FE049E450FD49EC0C949915089573
:102C9000DF93DD27B92FBF7740E85FE316161706ED
:102CA00048075B0718F4D92F0E9415179F938F933D
:102CB0007F936F930E946317E8E6F0E00E94E916A5
:102CC0000E94E0142F913F914F915F910E946F14E9
:102CD000DD2351F09058A2EA2AED3FE049EC5FE392
:102CE000D0785D270E94B015DF910C94E0140E940B
:102CF0008B160C94E0140E94D91458F00E94D21440
:102D000040F029F45F3F29F00C94C91451110C9440
:102D100014150C94CF140E94F11468F39923B1F3A5
:102D2000552391F3951B550BBB27AA2762177307F1
:102D3000840738F09F5F5F4F220F331F441FAA1F85
:102D4000A9F335D00E2E3AF0E0E832D09150504041
:102D5000E695001CCAF72BD0FE2F29D0660F771FEF
:102D6000881FBB1F261737074807AB07B0E809F0D5
:102D7000BB0B802DBF01FF2793585F4F3AF09E3F5A
:102D8000510578F00C94C9140C9414155F3FE4F3CA
:102D9000983ED4F3869577956795B795F7959F5F9D
:102DA000C9F7880F911D9695879597F90895E1E0E9
:102DB000660F771F881FBB1F621773078407BA0748
:102DC00020F0621B730B840BBA0BEE1F88F7E095A3
:102DD0000895DF93CF931F930F93FF92EF92DF92AB
:102DE0007B018C01689406C0DA2EEF010E946F14FB
:102DF000FE01E894A5912591359145915591A6F351
:102E0000EF010E94B015FE019701A801DA9469F75D
:102E1000DF90EF90FF900F911F91CF91DF91089578
:102E20000E94381408F48FEF08959B01AC0160E014
:102E300070E080E89FE30C94771619F416F40C9474
:102E4000CF140C946C170E94F914B8F39923C9F3AA
:102E5000B6F39F57550B87FF0E947A170024A0E610
:102E600040EA900180585695979528F4805C660F4B
:102E7000771F881F20F026173707480730F4621B9A
:102E8000730B840B202931294A2BA695179407949C
:102E9000202531254A2758F7660F771F881F20F015
:102EA00026173707480730F4620B730B840B200D8D
:102EB000311D411DA09581F7B901842F9158880FCC
:102EC0009695879508959B01AC010C945C140E9423
:102ED0003814880B990B08959F3F31F0915020F4DE
:102EE000879577956795B795880F911D96958795E6
:102EF00097F9089591505040660F771F881FD2F7B9
:102F000008950F931F93CF93DF938230910510F4B0
:102F100082E090E0E091B605F091B70530E020E066
:102F2000B0E0A0E0309799F42115310509F44AC0CA
:102F3000281B390B24303105D8F58A819B81611516
:102F4000710589F1FB0193838283FE0111C04081E9
:102F500051810281138148175907E0F0481759073A
:102F600099F4109761F012960C93129713961C9394
:102F70003296CF01DF91CF911F910F910895009369
:102F8000B6051093B705F4CF2115310551F042175E
:102F9000530738F0A901DB019A01BD01DF01F801F7
:102FA000C1CFEF01F9CF9093B7058093B605CDCF90
:102FB000FE01E20FF31F819391932250310939836F
:102FC0002883D7CF2091B4053091B505232B41F448
:102FD00020910501309106013093B5052093B40589
:102FE00020910301309104012115310541F42DB7E1
:102FF0003EB74091070150910801241B350BE09129
:10300000B405F091B505E217F307A0F42E1B3F0BB2
:103010002817390778F0AC014E5F5F4F241735074A
:1030200048F04E0F5F1F5093B5054093B405819350
:1030300091939FCFF0E0E0E09CCFCF93DF93009798
:10304000E9F0FC01329713821282A091B605B0918B
:10305000B705ED0130E020E01097A1F42081318127
:10306000820F931F2091B4053091B50528173907B9
:1030700009F061C0F093B505E093B405DF91CF91FD
:103080000895EA01CE17DF07E8F54A815B819E01CA
:1030900041155105B1F7E901FB83EA834991599143
:1030A000C40FD51FEC17FD0761F480819181029652
:1030B000840F951FE90199838883828193819B8383
:1030C0008A83F0E0E0E012968D919C91139700972F
:1030D000B9F52D913C911197CD010296820F931F66
:1030E0002091B4053091B5052817390739F6309786
:1030F00051F51092B7051092B605B093B505A0939F
:10310000B405BCCFD383C28340815181840F951F06
:10311000C817D90761F44E5F5F4F88819981480FC6
:10312000591F518340838A819B8193838283211518
:10313000310509F0B0CFF093B705E093B6059ECF07
:10314000FD01DC01C0CF13821282D7CFB0E0A0E036
:10315000ECEAF8E10C943B158C01009751F4CB019B
:103160000E9481178C01C801CDB7DEB7E0E10C9455
:103170005715FC01E60FF71F9C0122503109E21799
:10318000F30708F49DC0D901CD91DC911197C617C2
:10319000D70798F0C530D10530F3CE0104978617D4
:1031A000970708F3C61BD70B2297C193D1936D9352
:1031B0007C93CF010E941D18D6CF5B01AC1ABD0ACB
:1031C0004C018C0E9D1EA091B605B091B705512CF7
:1031D000412CF12CE12C109731F58091B4059091A0
:1031E000B5058815990509F05CC04616570608F024
:1031F00058C08091030190910401009741F48DB76C
:103200009EB74091070150910801841B950BE81768
:10321000F90708F055C0F093B505E093B405F9013E
:1032200071836083A0CF8D919C91119712966C90C1
:10323000129713967C901397A815B90559F56C0150
:1032400042E0C40ED11CCA14DB0420F1AC014A19BF
:103250005B09DA011296159780F0628273825183BE
:103260004083D9016D937C93E114F10471F0D7018F
:103270001396FC93EE93129776CF22968C0F9D1F98
:10328000F90191838083F301EFCFF093B705E093C9
:10329000B60569CF4816590608F42C017D01D30103
:1032A0009ACFCB010E9481177C01009749F0AE01B3
:1032B000B8010E946319C8010E941D18870153CFED
:1032C00010E000E050CFFB01DC0102C001900D9244
:1032D00041505040D8F70895FB01DC0101900D9258
:1032E0000020E1F70895FB01DC014150504030F02F
:1032F0008D910190801919F40020B9F7881B990B62
:103300000895FB0151915523A9F0BF01DC014D91B6
:1033100045174111E1F759F4CD010190002049F022
:103320004D9140154111C9F3FB014111EFCF81E0EF
:1033300090E001970895AEE0B0E0E1EAF9E10C9485
:1033400047150D891E898F89988D26E02C831A8355
:10335000098397FF02C080E090E801979E838D83E8
:10336000AE01455E5F4F698D7A8DCE0101960E9458
:10337000CB194D815E8157FD0AC02F8138854217D8
:1033800053070CF49A01020F131FF80110822E96B6
:10339000E4E00C946315ABE0B0E0E1EDF9E10C94EE
:1033A00039157C013B018A01FC0117821682838159
:1033B00081FFC8C1CE0101965C01F7019381F30141
:1033C00093FD859193FF81913F01882309F453C1B7
:1033D000853239F493FD859193FF81913F018532C8
:1033E00029F4B70190E00E94BB1BE7CF912C212C60
:1033F000312CFFE1F31538F08B3211F190F480326B
:1034000009F1833229F137FC3CC020ED280F2A3026
:1034100050F536FE20C08AE0989E200D1124922E91
:1034200006C08D3291F0803371F7689430F8F30163
:1034300093FD859193FF81913F018111DACF21C0E6
:10344000689431F8689432F8F2CF689433F8EFCF8B
:10345000689434F8ECCFEAE02E9E200D1124222E41
:10346000689435F8E4CF8E3229F436FC04C16894B0
:1034700036F8DDCF8C3619F4689437F8D8CF883613
:10348000B1F2982F9F7D95549330E0F08336A1F1EF
:103490008337C1F1833509F063C02801F2E04F0E94
:1034A000511CF801C080D180692D70E036FC02C04B
:1034B0006FEF7FEFC6010E94A51B4C01689437F89F
:1034C00082010AC00C5F1F4FFFE3F98388248394B5
:1034D000912C6501E89437F833FE2DC0522C8114ED
:1034E000910471F5552009F468CFB70180E290E0AE
:1034F0000E94BB1B5A94F6CFF801808189830E5F2E
:103500001F4FE4CF2801F2E04F0E511CF801C0809C
:10351000D180692D70E036FC02C06FEF7FEFC601ED
:103520000E94B01B4C018201D5CFB70180E290E030
:103530000E94BB1B2A942814190409F0B0F7CECFBF
:10354000F60137FC859137FE81916F01B70190E05C
:103550000E94BB1B51105A94F1E08F1A9108BFCF03
:10356000843619F0893609F077C0F80137FE6BC050
:1035700060817181828193810C5F1F4FF32DFF76F3
:103580003F2E97FF09C090958095709561957F4F6C
:103590008F4F9F4F689437F82AE030E0A5010E94D2
:1035A000EB1BC82ECA188C2C432C36FE0CC0E8949A
:1035B00040F8C91440F434FE05C032FC03C0F32DBA
:1035C000FE7E4F2E892C44FE95C0FE01EC0DF11DB0
:1035D0008081803309F087C0242D297E422E842DDE
:1035E0008870582E43FC95C040FE8FC09C2C8214DE
:1035F00018F42C0C922C981844FE91C0B70180E36B
:1036000090E00E94BB1B42FE09C088E790E041FEAB
:1036100002C088E590E0B7010E94BB1BC91408F402
:103620008AC0CA94D12C9FEFC91AD90ACA0CDB1CD4
:10363000F60182916F01B70190E00E94BB1BAC14B0
:10364000BD04B1F74FCF60817181072E000C880B4C
:10365000990B0E5F1F4F92CFD32CE894D4F82AE039
:1036600030E0853739F1232D297FD22E8F3601F1B5
:1036700048F48835A9F0F701868197812B96E2E11D
:103680000C945515803749F08837A9F7D4FE02C04D
:103690006894D2F820E130E00DC06894D4F8F6CFF9
:1036A00034FE03C0822F8660D82E20E132E002C0B3
:1036B00028E030E0F801D7FE0FC06081718182817F
:1036C00093810C5F1F4FA5010E94EB1BC82ECA18E7
:1036D0003D2CE89437F867CF6081718190E080E0FD
:1036E0000E5F1F4FF0CF42FC02C0839478CF8394CB
:1036F000839475CF842D867809F471CFF6CFB70106
:1037000080E290E00E94BB1B83948214C0F3512C92
:1037100073CF522C5818821408F46ECFF8CF842D32
:10372000867809F47BCF8BE241FE80E247FC8DE294
:10373000B70190E071CFB70180E390E00E94BB1B1E
:103740009A946CCF8FEF9FEF99CFFC010590615059
:1037500070400110D8F7809590958E0F9F1F0895A7
:10376000FC016150704001900110D8F78095909550
:103770008E0F9F1F08950F931F93CF93DF93182FE2
:10378000092FEB018B8181FD09C01FEF0FEF812F06
:10379000902FDF91CF911F910F91089582FF14C058
:1037A0002E813F818C819D81281739073CF4E88167
:1037B000F981CF0101969983888310838E819F813F
:1037C00001969F838E83E3CFE885F985812F099544
:1037D000892BA1F3DACFFA01AA27283051F1203141
:1037E00081F1E8946F936E7F6E5F7F4F8F4F9F4F95
:1037F000AF4FB1E03ED0B4E03CD0670F781F891FD7
:103800009A1FA11D680F791F8A1F911DA11D6A0FA4
:10381000711D811D911DA11D20D009F468943F9157
:103820002AE0269F11243019305D3193DEF6CF0156
:103830000895462F4770405D4193B3E00FD0C9F71C
:10384000F6CF462F4F70405D4A3318F0495D31FD89
:103850004052419302D0A9F7EACFB4E0A6959795DC
:10386000879577956795BA95C9F7009761057105B2
:1038700008959B01AC010A2E0694579547953795FC
:103880002795BA95C9F7620F731F841F951FA01D56
:063890000895F894FFCF3B
:103896000101010000B80580000000000026038633
:1038A60002B3027303E402C202D602000000006FF4
:1038B6000542059E0518053B052805190574727510
:1038C600650066616C736500302E303000415244ED
:1038D6005F44524F5753494E4553535F3030310082
:1038E6007B226465766963655F6964223A22257383
:1038F600222C2274696C745F616E676C65223A25AE
:10390600732C2274696C745F6F7665725F7468726B
:103916006573686F6C64223A25732C2274696C7423
:103926005F6475726174696F6E5F6D73223A256CA0
:10393600752C22627574746F6E5F70726573736531
:1039460064223A25732C226C6F63616C5F616C652F
:1039560072745F63616E646964617465223A25738B
:103966007D000D0A00574946495F4F4B00574946AF
:10397600495F4641494C00485454505F4641494CC2
:0239860000003F
:00000001FF
