:100000000C94F6000C941E010C941E010C941E011D
:100010000C941E010C941E010C941E010C941E01E4
:100020000C941E010C941E010C941E010C941E01D4
:100030000C941E010C941E010C941E010C941E01C4
:100040000C9408090C941E010C9478090C94520924
:100050000C941E010C941E010C941E010C941E01A4
:100060000C94AA090C941E01084AD73B3BCE016EA2
:1000700084BCBFFDC12F3D6C74319ABD56833DDAFF
:100080003D00C77F11BED9E4BB4C3E916BAAAABE0E
:10009000000000803F0000407A10F35A00A0724E2A
:1000A00018090010A5D4E80000E87648170000E41D
:1000B0000B54020000CA9A3B000000E1F505000065
:1000C00080969800000040420F000000A0860100CA
:1000D0000000102700000000E8030000000064009A
:1000E000000000000A000000000001000000000005
:1000F0002C76D888DC674F0823DFC1DFAE59E1B129
:10010000B796E5E3E453C63AE651997696E8E6C237
:100110008426EB898C9B62ED407C6FFCEFBC9C9F3E
:1001200040F2BAA56FA5F490055A2AF75C936B6C60
:10013000F9676DC11BFCE0E40D47FEF520E6B50054
:10014000D0ED902E0300943577050080841E0800C2
:1001500000204E0A000000C80C333333330F986E72
:1001600012831141EF8D2114893BE65516CFFEE62F
:10017000DB18D1844B381BF77C1D901DA4BBE424F5
:10018000203284725E228100C9F124ECA1E53D2772
:1001900000000000240027002A00000000002500C5
:1001A00028002B0000000000230026002900040482
:1001B000040404040404020202020202030303030F
:1001C00003030102040810204080010204081020EB
:1001D00001020408102000000008000201000003D2
:1001E00004070000000000000000C90A11241FBE1F
:1001F000CFEFD8E0DEBFCDBF12E0A0E0B1E0ECE78A
:10020000F2E302C005900D92AE3AB107D9F725E0AE
:10021000AEEAB2E001C01D92A037B207E1F710E0EC
:10022000C6EFD0E004C02197FE010E944C13C53FE9
:10023000D107C9F70E94100B0C943C190C940000D4
:10024000833081F028F4813099F08230A9F008954C
:100250008730A9F08830C9F08430B1F480918000F3
:100260008F7D03C0809180008F77809380000895F8
:1002700084B58F7784BD089584B58F7DFBCF809141
:10028000B0008F778093B00008958091B0008F7D8B
:10029000F9CFCF93DF93282F30E0F901EA52FE4FD8
:1002A0008491F901EE53FE4FD491F901E255FE4FCE
:1002B000C491CC23A1F081110E942001EC2FF0E029
:1002C000EE0FFF1FEC55FE4FA591B491EC91ED237D
:1002D00081E090E009F480E0DF91CF91089580E023
:1002E00090E0FACF1F93CF93DF93282F30E0F901EE
:1002F000EA52FE4F8491F901EE53FE4FD491F90179
:10030000E255FE4FC491CC23A9F0162F81110E9413
:100310002001EC2FF0E0EE0FFF1FE656FE4FA591F7
:10032000B4918FB7F894EC91111108C0D095DE23E9
:10033000DC938FBFDF91CF911F910895DE2BF8CF13
:10034000CF93DF9390E0FC01EE53FE4F2491825552
:100350009E4FFC0184918823D1F090E0880F991F73
:10036000FC01E057FE4FA591B491FC01E656FE4F0B
:10037000C591D491623071F49FB7F8943C91822F6B
:10038000809583238C93E8812E2B28839FBFDF9158
:10039000CF9108958FB7F894EC912E2B2C938FBFAB
:1003A000F6CF3FB7F8948091300490913104A0913A
:1003B0003204B091330426B5A89B05C02F3F19F035
:1003C0000196A11DB11D3FBFBA2FA92F982F8827D5
:1003D000BC01CD01620F711D811D911D42E0660FB0
:1003E000771F881F991F4A95D1F708958F929F9282
:1003F000AF92BF92CF92DF92EF92FF924B015C01DE
:100400000E94D1016B017C010E94D1016C197D0910
:100410008E099F09683E734081059105A8F321E08C
:10042000821A9108A108B10888EEC80E83E0D81E90
:10043000E11CF11C81149104A104B10429F7FF907F
:10044000EF90DF90CF90BF90AF909F908F900895E6
:100450002FB7F89460912C0470912D0480912E0494
:1004600090912F042FBF089508950895AF92BF92E1
:10047000CF92DF92EF92FF920F931F93CF93DF9370
:100480006C017B018B01040F151FEB015E01AE189F
:10049000BF08C017D10759F06991D601ED91FC91C1
:1004A0000190F081E02DC6010995892B79F7C501EE
:1004B000DF91CF911F910F91FF90EF90DF90CF9040
:1004C000BF90AF900895FC01538D448D252F30E0EF
:1004D000842F90E0821B930B541710F0CF96089551
:1004E00001970895FC01918D828D981761F0A28D7E
:1004F000AE0FBF2FB11D5D968C91928D9F5F9F7344
:10050000928F90E008958FEF9FEF0895FC01918DF9
:10051000828D981731F0828DE80FF11D858D90E066
:1005200008958FEF9FEF0895FC01918D228D892F03
:1005300090E0805C9F4F821B91098F7399270895EB
:1005400086EA94E00E94940221E0892B09F420E0DD
:10055000822F089580E090E0892B29F00E94A0026C
:1005600081110C9400000895FC01A48DA80FB92FEF
:10057000B11DA35ABF4F2C91848D90E001968F73CB
:100580009927848FA689B7892C93A089B1898C91EA
:10059000837080648C93938D848D981306C0028839
:1005A000F389E02D80818F7D80830895EF92FF9203
:1005B0000F931F93CF93DF93EC0181E0888F9B8D86
:1005C0008C8D98131AC0E889F989808185FF15C040
:1005D0009FB7F894EE89FF896083E889F989808163
:1005E0008370806480839FBF81E090E0DF91CF9132
:1005F0001F910F91FF90EF900895F62E0B8D10E054
:100600000F5F1F4F0F731127E02E8C8D8E110CC0C2
:100610000FB607FCFACFE889F989808185FFF5CF0D
:10062000CE010E94B402F1CFEB8DEC0FFD2FF11D36
:10063000E35AFF4FF0829FB7F8940B8FEA89FB894A
:1006400080818062CFCFCF93DF93EC01888D8823A8
:10065000B9F0AA89BB89E889F9898C9185FD03C025
:10066000808186FD0DC00FB607FCF7CF8C9185FF0A
:10067000F2CF808185FFEDCFCE010E94B402E9CF99
:10068000DF91CF9108952091CE02260F3327331F9B
:1006900021323105ECF420917C04FC0190E080E0F3
:1006A000243069F082E00895A091CE022191AC013E
:1006B00042555D4FA40FB52FB11D2C93019686179F
:1006C00098F38091CE02680F6093CE0280E0089587
:1006D00081E0089510927C0481E080937B04109265
:1006E000560461E082E10E94720161E083E10E94B0
:1006F0007201E9EBF0E080818E7F808380818D7FC5
:10070000808388E48093B80085E48093BC000895DA
:10071000CF93DF9391E09093F7038823B9F0C091D2
:10072000B800D091BA008091BC008A7B8093BC0055
:1007300060E082E10E94720160E083E10E94720148
:100740000E946A03D093BA00C093B800DF91CF91A2
:1007500008958F929F92AF92BF92CF92DF92EF92C5
:10076000FF920F931F93CF93DF93D091A504D132C3
:1007700008F0D7C0182FC091A4040E94D1016B01CA
:100780007C0180917C0481116BC082E080937C04A9
:1007900010937B048FEF80937A0410927904D093A6
:1007A0007804A4E8B4E0E8E5F4E080E0D81391C070
:1007B0001092570480915704CC0FC82BC093570454
:1007C00080915604813009F088C0109256040E942E
:1007D000D1016B017C01809157048093BB00809113
:1007E0007E0490917F04A0918004B0918104892BB4
:1007F0008A2B8B2BA1F00E94D10100917E041091D5
:100800007F0420918004309181046C197D098E0948
:100810009F09061717072807390708F442C0809177
:10082000BC0083FDD8CF85EC8093BC000E94D10131
:100830006B017C0180917C04823009F450C080916E
:100840007A048F3F09F46FC080917A04803209F4F2
:100850006CC080917A04803309F469C084E026C0BA
:1008600080917E0490917F04A0918004B0918104D6
:10087000892B8A2B8B2B09F484CF0E94D101809085
:100880007E0490907F04A0908004B09081046C1945
:100890007D098E099F0986169706A806B90608F0F5
:1008A00070CF80917D040E94880385E010928304BC
:1008B0001092A50410928204DF91CF911F910F91A5
:1008C000FF90EF90DF90CF90BF90AF909F908F9070
:1008D00008959D9191938F5F69CF85EEA5CF80910B
:1008E0007E0490917F04A0918004B0918104892BB3
:1008F0008A2B8B2B09F49ECF0E94D10100917E049C
:1009000010917F0420918004309181046C197D093D
:100910008E099F09061717072807390708F08ACF9D
:10092000C0CF81E0C3CF80E0C1CF82E0BFCF83E002
:10093000BDCF0F931F93CF93DF938A01E9012097D7
:1009400011F4C3E4D5E091E0909382048093A40471
:10095000109283041092A504E881F9810190F0813E
:10096000E02DCE010995E881F9810190F081E02D1B
:10097000D8016C91CE01099581E00E94A90391E014
:10098000811190E0892FDF91CF911F910F910895F0
:100990000895E091350480913404E81730F4F0E0D4
:1009A000EA5CFB4F808190E008958FEF9FEF089500
:1009B00090913504809134042FEF3FEF981748F45D
:1009C000E92FF0E0EA5CFB4F208130E09F5F9093DD
:1009D0003504C90108958091340490913504891B30
:1009E000990B0895CF92DF92EF92FF920F931F938E
:1009F000CF93DF937C01CB018A01209182042223D3
:100A000089F0EB016B01C40ED51ECC15DD0569F034
:100A10006991D701ED91FC910190F081E02DC70122
:100A20000995F3CF642F0E944303C801DF91CF9152
:100A30001F910F91FF90EF90DF90CF900895CF938B
:100A4000DF931F92CDB7DEB7698320918204222302
:100A5000F9F02091A504203258F021E030E0FC01AB
:100A60003383228390E080E00F90DF91CF9108954F
:100A700080918304E82FF0E0EC57FB4F998190833D
:100A80008F5F809383048093A50481E090E0ECCF96
:100A900061E0CE0101960E944303F7CF90E080E031
:100AA00008952F923F924F925F926F927F928F9212
:100AB0009F92AF92BF92CF92DF92EF92FF920F93ED
:100AC0001F93CF93DF93CDB7DEB72E970FB6F89471
:100AD000DEBF0FBECDBF8B836E834E8738872F83DB
:100AE000180147010E9428026B017C0181149104C6
:100AF00021F483E4882E85E0982E2B81220F2C830D
:100B00003E85A32EB12C432F41954D831A82198225
:100B100010E001E0C101B0E0A0E089879A87AB87CF
:100B2000BC87A981BA81AA15BB050CF016C1009338
:100B30008204BB81B093A404109283041092A50494
:100B4000D401ED91FC910190F081E02D6E81C40102
:100B5000099581E00E94A9030E94D1012B013C016B
:100B600080917C0481116EC0BE85BD87B13210F0CA
:100B700020E22D8700937C0400937B043FEF3093A9
:100B80007A04109279048D858150809378040093C3
:100B90005704809157044C81842B80935704809193
:100BA0005604813009F098C0109256040E94D10179
:100BB0002B013C01809157048093BB0080917E04FF
:100BC00090917F04A0918004B0918104892B8A2B9D
:100BD0008B2BA1F00E94D10120917E0430917F04E3
:100BE0004091800450918104641975098609970920
:100BF000261737074807590708F445C08091BC00FD
:100C000083FDD8CF55EC5093BC000E94D1012B013D
:100C10003C0180917C04813009F462C080917904A8
:100C20009D85891718F4A0917904AD87A8E5B4E0F3
:100C3000E6E3F4E080E02D85821751F19D919193D8
:100C40008F5FF9CF80917E0490917F04A091800402
:100C5000B0918104892B8A2B8B2B09F481CF0E94C0
:100C6000D10120917E0430917F0440918004509105
:100C700081046419750986099709261737074807FB
:100C8000590708F06DCF80917D040E9488031D866E
:100C9000109235043D8530933404D401ED91FC91DC
:100CA0000084F185E02DC4010995892B09F44AC01F
:100CB00021143104B9F5D401ED91FC910284F3853E
:100CC000E02DC4010995EF81F885E10FF11D17FDB5
:100CD000FA9580831F5FE1CF85EE8093BC0095CFAE
:100CE00080917E0490917F04A0918004B091810452
:100CF000892B8A2B8B2B09F48CCF0E94D101209158
:100D00007E0430917F0440918004509181046419E5
:100D1000750986099709261737074807590708F004
:100D200078CFB1CF0E9428026C197D098E099F09E6
:100D300029853A854B855C8562177307840795077B
:100D400008F4B9CF49815A814A0D5B1D5A83498302
:100D50005E858D81580F5E87E4CE21143104C1F089
:100D60000E942802AB01BC014C195D096E097F0984
:100D7000C101B0E0A0E0481759076A077B0740F0BF
:100D8000812F012E000C990B8A159B050CF41FEF87
:100D9000812F2E960FB6F894DEBF0FBECDBFDF9128
:100DA000CF911F910F91FF90EF90DF90CF90BF9068
:100DB000AF909F908F907F906F905F904F903F90FB
:100DC0002F9008952F923F924F925F926F927F9251
:100DD0008F929F92AF92BF92CF92DF92EF92FF924B
:100DE0000F931F93CF93DF934C015B016A0139018D
:100DF00028011701CFE4D5E0E980FA8008EE13E07E
:100E000022E535E04EE06BE388810E9451058B813D
:100E10009C81982789279827F401918380838D816D
:100E20009E81982789279827F501918380838F8158
:100E30009885982789279827F601918380838B8549
:100E40009C85982789279827F301918380838D8536
:100E50009E85982789279827F201918380838F8523
:100E60009889982789279827F10191838083DF91BA
:100E7000CF911F910F91FF90EF90DF90CF90BF9097
:100E8000AF909F908F907F906F905F904F903F902A
:100E90002F9008957F928F929F92AF92BF92CF92A0
:100EA000DF92EF92FF920F931F93CF93DF9300D0C7
:100EB000CDB7DEB7A82E962E742E822EB02E08EE59
:100EC00013E09E012E5F3F4F41E00E9451058823B1
:100ED000C1F1872D8819990BAC014F5F5F4F81E0FD
:100EE00090E002C0880F991F8A94E2F70197042EC0
:100EF00001C0880F0A94EAF72B2D01C0220F4A95F2
:100F0000EAF7B82EB0949A81B92282238B298A837A
:100F100089839701AE014F5F5F4F692D8A2D0E9433
:100F200099040F900F90DF91CF911F910F91FF9037
:100F3000EF90DF90CF90BF90AF909F908F907F9079
:100F4000089580E0EECFEF92FF920F93EFE4F5E08B
:100F5000E180F28000E022E044E06BE180810E94C9
:100F60004A070F91FF90EF900895EF92FF920F9331
:100F7000EFE4F5E0E180F28000E022E044E06CE1A3
:100F800080810E944A070F91FF90EF900895AF92E1
:100F9000BF92CF92DF92EF92FF920F931F93CF9366
:100FA000DF9300D0CDB7DEB78FE4C82E85E0D82E12
:100FB000F601E180F28001E023E042E06BE680810F
:100FC0000E944A070E94A3070E94B507F601A1806C
:100FD000B280D080750108EE13E09E012E5F3F4F76
:100FE00041E06BE68D2D0E9451058A818F7B8A83BB
:100FF00089839501AE014F5F5F4F6BE68D2D0E9497
:1010000099040F900F90DF91CF911F910F91FF9056
:10101000EF90DF90CF90BF90AF90089585ED8093D3
:10102000BC0080917E0490917F04A0918004B091D7
:1010300081040796A11DB11D23E0B695A79597954C
:1010400087952A95D1F72091BC0024FD03C010920A
:101050007C04089540917E0450917F046091800447
:1010600070918104452B462B472B69F30097A1050E
:10107000B10541F02AE22A95F1F700C00197A109D4
:10108000B109E1CF80917D040C9488034F925F9267
:101090006F927F928F929F92AF92BF92EF92FF9248
:1010A0000F931F93CF93DF93CDB7DEB7CC50D140D2
:1010B0000FB6F894DEBF0FBECDBF80902204909093
:1010C0002304A0902404B0902504A5019401C50137
:1010D000B4010E9445169E012F5F3E4F7901811198
:1010E00019C024013501E89477F82FEF3FEF4FE75F
:1010F0005FE7C301B2010E94451681117EC02FEF48
:101100003FEF4FE75FE7C301B2010E9431141816A9
:101110000CF073C06DE271E0C7010E945F16809110
:10112000040447E251E0882311F046E852E0809140
:10113000FF0327E231E0882311F026E832E06091D6
:10114000060470910704E0910804F091090480916D
:101150000E0481115AC087E291E05F934F933F9351
:101160002F93FF93EF937F936F939F938F93FF92B0
:10117000EF9282E391E09F938F9385E491E09F93B8
:101180008F9381E08F931F928E010F5F1F4F1F93EC
:101190000F930E948E16F80101900020E9F7319715
:1011A000AF01401B510BB80186EA94E00E94360261
:1011B00042E050E067EC71E086EA94E00E9436027B
:1011C0001092FF030FB6F894DEBF0FBECDBFC45F11
:1011D000DE4F0FB6F894DEBF0FBECDBFDF91CF91CB
:1011E0001F910F91FF90EF90BF90AF909F908F90C5
:1011F0007F906F905F904F900895870122E041E0CB
:10120000C501B4010E947F108ACF86E892E0A5CF85
:101210001F920F920FB60F9211242F933F938F932B
:101220009F93AF93BF9380912C0490912D04A09134
:101230002E04B0912F0430912B0423E0230F2D377F
:1012400058F50196A11DB11D20932B0480932C0409
:1012500090932D04A0932E04B0932F04809130041A
:1012600090913104A0913204B09133040196A11DF4
:10127000B11D8093300490933104A0933204B09355
:101280003304BF91AF919F918F913F912F910F9018
:101290000FBE0F901F90189526E8230F0296A11DF0
:1012A000B11DD2CF1F920F920FB60F9211242F9320
:1012B0003F934F935F936F937F938F939F93AF93DE
:1012C000BF93EF93FF9386EA94E00E94B402FF91EC
:1012D000EF91BF91AF919F918F917F916F915F91AE
:1012E0004F913F912F910F900FBE0F901F90189527
:1012F0001F920F920FB60F9211242F938F939F93EB
:10130000EF93FF93E091B604F091B7048081E091F0
:10131000BC04F091BD0482FD1BC090818091BF048C
:101320008F5F8F732091C004821741F0E091BF045A
:10133000F0E0EA55FB4F958F8093BF04FF91EF914A
:101340009F918F912F910F900FBE0F901F90189526
:101350008081F4CF1F920F920FB60F9211242F931A
:101360003F934F935F936F937F938F939F93AF932D
:10137000BF93EF93FF938091B900887F803609F483
:101380004AC0F0F5883209F4A7C018F5803109F495
:101390009BC0B8F4882309F4F9C0883009F494C0DC
:1013A000FF91EF91BF91AF919F918F917F916F913D
:1013B0005F914F913F912F910F900FBE0F901F9013
:1013C0001895883109F488C0803251F780937A04E7
:1013D00014C0803409F49DC040F48033B9F38833DD
:1013E000F9F680937A0485ECB0C0803509F485C0A5
:1013F000883509F496C0883499F60E940E08D0CF3B
:10140000883909F48CC038F5883729F050F48836CB
:1014100011F0803729F683E080937C041092F0026B
:1014200057C0883809F47BC0803919F0803809F03A
:10143000B7CF8091F002803208F071C0E091F002E5
:1014400081E08E0F8093F0028091BB00F0E0E053CA
:10145000FD4F80833DC0803B39F0E0F4803A09F4D1
:1014600079C0883A09F09CCF84E080937C04109284
:10147000CF021092CE02E091F303F091F4030995AC
:101480008091CE0281110FC081E08093CE02109234
:10149000AE0209C0803C09F4A6CF883C09F4A3CF72
:1014A000883B09F07DCFE091CF0281E08E0F8093E1
:1014B000CF02F0E0E255FD4F80818093BB00909118
:1014C000CF028091CE0229C0809157048093BB0047
:1014D00085EC8093BC0064CF90917904809178046E
:1014E000981758F5E091790481E08E0F8093790484
:1014F000F0E0E85AFB4F8081E9CFE091790481E088
:101500008E0F809379048091BB00F0E0E85AFB4F86
:10151000808390917904809178049817C8F285E8C7
:10152000D8CFE091790481E08E0F80937904809187
:10153000BB00F0E0E85AFB4F808380917B0481116F
:101540005CCF81E08093560484EA8093BC001092C3
:101550007C0426CF85EC8093BC0010927C048091A3
:10156000F002803230F4E091F002F0E0E053FD4F01
:1015700010826091F00270E0E091F503F091F603C3
:1015800080ED92E009951092F0020ACF10927A0451
:1015900034CFE6EAF4E01382128288EE93E0A0E012
:1015A000B0E084839583A683B78327E031E031835D
:1015B000208325EC30E03587248724EC30E0378722
:1015C000268720EC30E0318B208B21EC30E0338B10
:1015D000228B22EC30E0358B248B26EC30E0378BED
:1015E000268B118E128E138E148EE3E4F5E0138297
:1015F000128284839583A683B78389E191E09183E6
:101600008083EFE4F5E088E680831282118288EF20
:101610009AE2A0E0B0E0818B928BA38BB48B08950B
:10162000CF93DF93CDB7DEB760970FB6F894DEBFE8
:101630000FBECDBF789484B5826084BD84B58160CF
:1016400084BD85B5826085BD85B5816085BD80918D
:101650006E00816080936E00109281008091810005
:1016600082608093810080918100816080938100FD
:10167000809180008160809380008091B1008460BF
:101680008093B1008091B00081608093B000809120
:101690007A00846080937A0080917A0082608093DF
:1016A0007A0080917A00816080937A0080917A003C
:1016B000806880937A001092C100E091B604F091A6
:1016C000B70482E08083E091B204F091B304108209
:1016D000E091B404F091B50480E180831092BE04DF
:1016E000E091BA04F091BB0486E08083E091B804F5
:1016F000F091B904808180618083E091B804F09119
:10170000B904808188608083E091B804F091B904C5
:10171000808180688083E091B804F091B904808171
:101720008F7D808368EC70E080E090E00E94F6019D
:1017300061E085E00E94A00161E086E00E94A001D6
:1017400061E087E00E94A00161E088E00E94A001C2
:1017500060E085E00E94720160E086E00E94720114
:1017600060E087E00E94720161E088E00E947201FF
:1017700062E084E00E94A0011092350410923404CB
:10178000109283041092A5040E946A0384E392E0FD
:101790009093F4038093F30385E392E09093F60330
:1017A0008093F5031092F70388EA91E6A0E0B0E099
:1017B00080937E0490937F04A0938004B09381046F
:1017C00081E080937D0404E110E068EE73E080E046
:1017D00090E00E94F60101501109B9F788E6809364
:1017E0004F05109251051092500588EF9AE2A0E043
:1017F000B0E08093600590936105A0936205B0937B
:1018000063050E94C70781E080932A040E94B50700
:101810000E94A3076CE271E080E090E00E94F60174
:1018200080912A04882309F47AC032E3C32ED12C94
:10183000812C912C5401412C512C32011D861E8685
:101840001F86188A9E012F5F3F4F79018E010D5F21
:101850001F4F2C5F3F4FAE01495F5F4FBE01675F77
:101860007F4FCE010B960E94E2068B859C85092E48
:10187000000CAA0BBB0B2D853E854F855889280F80
:10188000391F4A1F5B1F2D873E874F87588B8985DD
:101890009A85092E000CAA0BBB0B480E591E6A1E16
:1018A0007B1E8F819885092E000CAA0BBB0B880E1E
:1018B000991EAA1EBB1E6AE070E080E090E00E94C4
:1018C000F601A89531E0C31AD10809F0BBCF22E395
:1018D000C22ED12CE12CF12C6D857E858F859889C7
:1018E000A70196010E94D4123093F9032093F803C4
:1018F000C301B201A70196010E94D4123093FD03E7
:101900002093FC03C501B401A70196010E94D412E3
:101910003093FB032093FA0381E08093FE0388E178
:1019200099E20FB6F894A895809360000FBE90934B
:1019300060002224239433243394A8950E94280223
:101940002B013C0186EA94E00E949402892B09F461
:10195000D7C086EA94E00E9472022091F103309190
:10196000F2038A3019F08D3009F0BAC0121613064E
:101970004CF72F503D4FD9011C9247E050E06AECE4
:1019800071E081EF92E00E946616892B39F4309263
:1019900005041092F2031092F103D4CF49E050E015
:1019A00062ED71E081EF92E00E946616892B19F4D6
:1019B00010920504EECF49E050E06CED71E081EF4C
:1019C00092E00E946616892B21F366EE71E081EFAA
:1019D00092E00E947416892B49F466EF71E081EF62
:1019E00092E00E947416892B09F45DC0E2E0F0E0F9
:1019F000F0931504E093140468E272E081EF92E042
:101A00000E94741621E0892B51F468E372E081EFA3
:101A100092E00E94741621E0892B09F420E02093C3
:101A20001C0469E472E081EF92E00E94741621E0E8
:101A3000892B51F46AE572E081EF92E00E947416FE
:101A400021E0892B09F420E020931D046CE672E06C
:101A500081EF92E00E94741621E0892B51F46BE72C
:101A600072E081EF92E00E94741621E0892B09F464
:101A700020E0209316046BE872E081EF92E00E9470
:101A8000741621E0892B51F46CE972E081EF92E049
:101A90000E94741621E0892B09F420E020930201B2
:101AA0001092040476CF67E072E081EF92E00E942A
:101AB0007416892B41F467E172E081EF92E00E9495
:101AC0007416892B41F088248394912C90921504EC
:101AD0008092140491CF10921504109214048CCFAC
:101AE0002F3F31050CF055CFA9014F5F5F4F509349
:101AF000F2034093F1032F503D4FD9018C9322CF35
:101B000080912A04882309F4CEC080912604909104
:101B10002704A0912804B091290453014201881A96
:101B2000990AAA0ABB0AD501C40184369105A10508
:101B3000B10508F4B8C08091FE03882309F43FC2C0
:101B40009E012F5F3F4F79018E010D5F1F4F2C5F6C
:101B50003F4FAE01495F5F4FBE01675F7F4FCE01D0
:101B60000B960E94E2068B859C85892B09F081C12A
:101B700089859A85892B09F07CC18F819885892B6D
:101B800009F077C11092BC0061E083E10E94A001DE
:101B900062E082E10E94A00109E010E08FE0E82EFF
:101BA000F12C60E083E10E947201C7010197F1F717
:101BB00061E083E10E947201C7010197F1F782E1C0
:101BC0000E944901019719F00150110951F7109233
:101BD000350410923404109283041092A5040E94DC
:101BE0006A0384E392E09093F4038093F30385E324
:101BF00092E09093F6038093F5031092F70388EA3E
:101C000091E6A0E0B0E080937E0490937F04A093DF
:101C10008004B093810430927D040E94C7070E9423
:101C2000B5070E94A3076AE070E080E090E00E94A0
:101C3000F601DE0111967D018E010D5F1F4F9E01A1
:101C40002B5F3F4FAE01495F5F4FBE01675F7F4F24
:101C5000CE010B960E94E2068B859C85892B09F0AC
:101C600008C189859A85892B09F003C18F819885E0
:101C7000892B09F0FEC08091220490912304A09149
:101C80002404B09125048093220490932304A0930C
:101C90002404B093250440922604509227046092B5
:101CA00028047092290484E00E9449017C0111E01B
:101CB000892B09F410E00E942802209101011217DB
:101CC00041F06093000470930104809302049093A8
:101CD00003048090000490900104A0900204B0904E
:101CE0000304681979098A099B0963337105810521
:101CF0009105D0F1809100011817B1F11093000106
:101D0000EF2891F53092FF0310921C0410921D04ED
:101D100010921604309202011092150410921404CD
:101D20001092040410920E041092060410920704FC
:101D3000109208041092090410920A0410920B04E5
:101D400010920C0410920D0460E085E00E94720174
:101D500060E086E00E94720160E087E00E9472010C
:101D600061E088E00E9472011093010180912A04D1
:101D7000882309F450C00E9428026B017C0120E0F6
:101D800030E040EF51E4609122047091230480918F
:101D90002404909125040E94811518160CF013C19B
:101DA00080910E0481110AC030920E04C0920A0480
:101DB000D0920B04E0920C04F0920D0480910A047E
:101DC00090910B04A0910C04B0910D04C81AD90A8B
:101DD000EA0AFB0AC0920604D0920704E0920804C3
:101DE000F092090480910504811115C0B8EBCB165F
:101DF000BBE0DB06E104F10470F080910404811182
:101E00000AC03092040430921C0430921D043092B7
:101E100016041092020180911E0490911F04A0915B
:101E20002004B091210453014201881A990AAA0A98
:101E3000BB0AD501C401883E9340A105B10550F00D
:101E400040921E0450921F0460922004709221045C
:101E50000E9446080E9428026B017C0110911D041B
:101E600080911C041111F2C08111F0C0109217046E
:101E700016C169857A85072E000C880B990B0E9484
:101E8000AA144B015C016F817885072E000C880B2A
:101E9000990B0E94AA146B017C01A5019401C50154
:101EA000B4010E948E154B015C01A7019601C70188
:101EB000B6010E948E159B01AC01C501B4010E94C0
:101EC00053130E9401166B017C016B857C85072EE4
:101ED000000C880B990B0E94AA14A70196010E947E
:101EE000D2136D877E878F87988B6091FC037091EA
:101EF000FD03072E000C880B990B0E94AA144B01BE
:101F00005C016091FA037091FB03072E000C880BB3
:101F1000990B0E94AA146B017C01A5019401C501D3
:101F2000B4010E948E154B015C01A7019601C70107
:101F3000B6010E948E159B01AC01C501B4010E943F
:101F400053130E9401166B017C016091F80370919C
:101F5000F903072E000C880B990B0E94AA14A70105
:101F600096010E94D2136B017C0120E030E044E333
:101F700053E46D857E858F8598890E948E152BEDA3
:101F80003FE049E450E40E9436144B015C0120E03C
:101F900030E044E353E4C701B6010E948E152BEDF7
:101FA0003FE049E450E40E9436149B01AC01C501B6
:101FB000B4010E945213DC01CB01BF7764CE80E0F4
:101FC00090E0DC0160CE10920E0410920604109294
:101FD0000704109208041092090410920A04109247
:101FE0000B0410920C0410920D0415CF61E08823AD
:101FF00009F43CCF85E00E9472016091020188E003
:102000000E94720160911704111101C060E086E026
:102010000E94720180911604882309F469C080919E
:102020001404909115040297E4F161E087E00E94A6
:10203000720180E090E0892B09F47FCC0E94A0021D
:10204000882309F476CC0E94000073CC40911804D8
:102050005091190460911A0470911B0446015701B4
:10206000841A950AA60AB70AB501A401443F514053
:102070006105710568F090911704922590931704FB
:10208000C0921804D0921904E0921A04F0921B0432
:10209000112309F4ABCF609117048111ABCF60E03D
:1020A000A9CF8091100490911104A0911204B091D5
:1020B000130446015701881A990AAA0ABB0AD501D6
:1020C000C4018A3F9105A105B10508F4B2CF609122
:1020D0000F04622560930F0487E00E947201C09292
:1020E0001004D0921104E0921204F0921304A1CFD4
:1020F00060E087E00E94720110920F049ACFEF9285
:102100000F931F93CF93DF93E80134E047FD34E151
:10211000042E000C550B57FF03C0519541955109F2
:10212000E32E022F242FAE010E949D10CE01DF91DD
:10213000CF911F910F91EF900895A9E0B0E0E3EAED
:10214000F0E10C94F9126A01F22EB02E102FFBE38D
:10215000AF2EA01608F41BE31F5F012F27E0AE018E
:102160004F5F5F4F0E94FC11BC018981982F9970CD
:10217000913009F43FC09BE2E1FC04C09E2D9170B8
:10218000E0FC3AC05E2D5071E82FE87083FF46C036
:1021900084E0911101C083E0EF2DE81B8F1508F05A
:1021A000E0E0D6018E2F20E2552351F1992329F04A
:1021B000D6019C93C60101966C0196012D5F3F4F9D
:1021C000E2FE24C08EE4D6018C9391E411969C9398
:1021D000119712968C93D9018E2F90E281111BC01A
:1021E000E20FF32FF11D10828EEF9FEF2996ECE0A6
:1021F0000C9415139DE2C6CF90E2C4CF2D9381506D
:102200008111FCCFCE0ED11CE0E0D0CF8EE6D601FE
:102210008C9391E6DBCF9D938150E0CF482F4470A3
:1022200082FF3DC084E0911101C083E08F1510F45E
:10223000EF2DE81BD6018E2F20E2552309F19923BB
:1022400029F0D6019C93C60101966C0196012D5F81
:102250003F4FE2FE1BC089E4D6018C938EE41196B9
:102260008C93119786E412968C93D9018E2F90E26D
:10227000882309F4B5CF9D938150FACF2D938150D7
:102280008111FCCFCE0ED11CE0E0D9CF89E6D6017A
:102290008C938EE611968C93119786E6E4CF9B0182
:1022A00077FF02C030E020E0A1E0B0E0911102C071
:1022B000B0E0A0E0F9013196AE0FBF1F8B2C912C3E
:1022C000BB2009F461C05401EFEFAE1ABE0AAA0D9B
:1022D000BB1DFA161B0619F014F04F2D4A1B5111A5
:1022E00088C0E3FC59C07601A42FB0E2A1114FC011
:1022F000C40ED11C992309F45BC040E0D6011196AD
:10230000F60190836D01552309F448C0012F060F93
:102310009A81582F507184FF03C0913309F4015002
:1023200010160CF047C0093008F008E0EEE2FE2E6F
:102330005B01A01AB10885019194819491082F3F07
:10234000320729F4D601FC92F60131966F0162172B
:10235000730794F1021713077CF5DB01A21BB30B83
:10236000AA24A394B12CAC0EBD1EAA0DBB1D1196C0
:102370008C9121503109D601119628153905F4F0B8
:10238000F60180836D01DBCFB12CA12CA0CFF7012A
:10239000B1937F01A150AACF9111B0CFD601942F54
:1023A00050E302C05D9391509111FCCFC40ED11C3B
:1023B00040E0ACCF01E0BACF80E3DBCF6217730718
:1023C00031F4963388F4953311F4552369F0F6010E
:1023D0008083FD01842F90E2811108C0A40FB11DFC
:1023E0001C9290E080E002CF81E3F1CF9193815085
:1023F000F3CF911183CF8ACF283008F027E033271D
:10240000DA01990F311D87FD916000966105710514
:1024100039F432602E5F3D9330E32A95E1F7089559
:102420009F3F30F080387105610509F03C5F3C5FEB
:102430003D93913008F08068911DDF93CF931F93F7
:102440000F93FF92EF92192F987F9695E92F96950B
:102450009695E90FFF27E051FF4F99273327EE2488
:10246000FF24A701E70105900894079428F4360F8C
:10247000E71EF81E491F511D660F771F881F991F01
:102480000694A1F70590079428F4E70EF81E491F5B
:10249000561FC11D770F881F991F661F0694A1F74D
:1024A0000590079428F4F80E491F561FC71FD11D29
:1024B000880F991F661F771F0694A1F70590079450
:1024C00020F4490F561FC71FD81F990F661F771F8B
:1024D000881F0694A9F784911095177041F0D6953E
:1024E000C79557954795F794E7941A95C1F7E6E98C
:1024F000F0E068941590159135916591959105904E
:102500007FE27395E118F10A430B560BC90BD00912
:10251000C0F7E10CF11E431F561FC91FD01D7EF4EA
:10252000703311F48A95E6CFE894015030F0080F2B
:102530000AF40027021708F4202F2395022F7A337C
:1025400028F079E37D932A95E9F710C07D932A95C9
:1025500089F6069497956795379517951794E1181E
:10256000F10A430B560BC90BD00998F023957E91C5
:1025700073957A3308F070E37C932013B8F77E915B
:1025800070617D9330F0839571E37D9370E32A95BC
:10259000E1F71124EF90FF900F911F91CF91DF9100
:1025A000992787FD90950895052E97FB1EF40094BA
:1025B0000E94EB1257FD07D00E942A1307FC03D09C
:1025C0004EF40C94EB1250954095309521953F4F69
:1025D0004F4F5F4F089590958095709561957F4F0F
:1025E0008F4F9F4F08952F923F924F925F926F921D
:1025F0007F928F929F92AF92BF92CF92DF92EF9293
:10260000FF920F931F93CF93DF93CDB7DEB7CA1B13
:10261000DB0B0FB6F894DEBF0FBECDBF09942A883E
:10262000398848885F846E847D848C849B84AA84E6
:10263000B984C884DF80EE80FD800C811B81AA8173
:10264000B981CE0FD11D0FB6F894DEBF0FBECDBF3E
:10265000ED010895A1E21A2EAA1BBB1BFD010DC0BE
:10266000AA1FBB1FEE1FFF1FA217B307E407F50742
:1026700020F0A21BB30BE40BF50B661F771F881F1E
:10268000991F1A9469F760957095809590959B01B4
:10269000AC01BD01CF010895EE0FFF1F0590F4912D
:1026A000E02D09945058BB27AA270E946A130C9466
:1026B00047150E94391538F00E94401520F039F472
:1026C0009F3F19F426F40C940F150EF4E095E7FBE8
:1026D0000C940915E92F0E94581558F3BA17620790
:1026E00073078407950720F079F4A6F50C947A1502
:1026F0000EF4E0950B2EBA2FA02D0B01B90190011D
:102700000C01CA01A0011124FF27591B99F0593F60
:1027100050F4503E68F11A16F040A22F232F342FA8
:102720004427585FF3CF469537952795A795F040F6
:102730005395C9F77EF41F16BA0B620B730B840B0B
:10274000BAF09150A1F0FF0FBB1F661F771F881FC3
:10275000C2F70EC0BA0F621F731F841F48F487951B
:1027600077956795B795F7959E3F08F0B0CF93950D
:10277000880F08F09927EE0F9795879508950E9486
:10278000391560F080E891E009F49EEF0E94401551
:1027900028F040E851E071F45EEF0CC00C940F1586
:1027A0000C947A15E92FE0780E94581540F3092E11
:1027B000052AB1F3261737074807590738F00E2EB8
:1027C00007F8E02569F0E025E0640AC0EF6307F848
:1027D000009407FADB01B9019D01DC01CA01AD01DA
:1027E000EF930E944D140E9447150E9402145F91BE
:1027F000552339F02BED3FE049E450FD49EC0C94B2
:1028000053130895DF93DD27B92FBF7740E85FE3C7
:102810001616170648075B0718F4D92F0E9486156D
:102820009F938F937F936F930E944116E8E6F0E0A9
:102830000E9412150E9447152F913F914F915F9171
:102840000E94A115DD2351F09058A2EA2AED3FE045
:1028500049EC5FE3D0785D270E946A13DF910C9406
:1028600047150E94E51408F481E008950E944A1477
:102870000C9447150E94401558F00E94391540F0FD
:1028800029F45F3F29F00C94091551110C947B1524
:102890000C940F150E94581568F39923B1F3552332
:1028A00091F3951B550BBB27AA2762177307840763
:1028B00038F09F5F5F4F220F331F441FAA1FA9F3F9
:1028C00035D00E2E3AF0E0E832D091505040E695E7
:1028D000001CCAF72BD0FE2F29D0660F771F881F48
:1028E000BB1F261737074807AB07B0E809F0BB0B3B
:1028F000802DBF01FF2793585F4F3AF09E3F51054F
:1029000078F00C9409150C947B155F3FE4F3983E26
:10291000D4F3869577956795B795F7959F5FC9F737
:10292000880F911D9695879597F90895E1E0660FB8
:10293000771F881FBB1F621773078407BA0720F031
:10294000621B730B840BBA0BEE1F88F7E09508959A
:10295000E89409C097FB3EF4909580957095619539
:102960007F4F8F4F9F4F9923A9F0F92F96E9BB27EF
:102970009395F695879577956795B795F111F8CF6B
:10298000FAF4BB0F11F460FF1BC06F5F7F4F8F4FD6
:102990009F4F16C0882311F096E911C0772321F0CC
:1029A0009EE8872F762F05C0662371F096E8862F64
:1029B00070E060E02AF09A95660F771F881FDAF7BB
:1029C000880F9695879597F90895990F0008550FE8
:1029D000AA0BE0E8FEEF16161706E807F907C0F0A5
:1029E00012161306E407F50798F0621B730B840BAD
:1029F000950B39F40A2661F0232B242B252B21F487
:102A000008950A2609F4A140A6958FEF811D811D26
:102A1000089597F99F6780E870E060E008959FEF60
:102A200080EC0895DF93CF931F930F93FF92EF9263
:102A3000DF927B018C01689406C0DA2EEF010E94C0
:102A4000A115FE01E894A5912591359145915591E7
:102A5000A6F3EF010E946A13FE019701A801DA9420
:102A600069F7DF90EF90FF900F911F91CF91DF9169
:102A7000089500240A9416161706180609060895E4
:102A800000240A9412161306140605060895092E4A
:102A90000394000C11F4882352F0BB0F40F4BF2BB9
:102AA00011F460FF04C06F5F7F4F8F4F9F4F0895F9
:102AB00057FD9058440F551F59F05F3F71F04795EF
:102AC000880F97FB991F61F09F3F79F087950895D4
:102AD000121613061406551FF2CF4695F1DF08C0F3
:102AE000161617061806991FF1CF86957105610510
:102AF00008940895E894BB2766277727CB0197F9B8
:102B000008950E94E51408F48FEF08959B01AC012D
:102B100060E070E080E89FE30C9436140E94A115F9
:102B20000C9447150E94391538F00E94401520F08A
:102B3000952311F00C9409150C940F1511240C9485
:102B40007B150E94581570F3959FC1F3950F50E0C7
:102B5000551F629FF001729FBB27F00DB11D639F4F
:102B6000AA27F00DB11DAA1F649F6627B00DA11DF5
:102B7000661F829F2227B00DA11D621F739FB00D9B
:102B8000A11D621F839FA00D611D221F749F33270B
:102B9000A00D611D231F849F600D211D822F762FA4
:102BA0006A2F11249F5750409AF0F1F088234AF081
:102BB000EE0FFF1FBB1F661F771F881F91505040ED
:102BC000A9F79E3F510580F00C9409150C947B15D4
:102BD0005F3FE4F3983ED4F3869577956795B79574
:102BE000F795E7959F5FC1F7FE2B880F911D96958E
:102BF000879597F9089519F416F40C940F150C9411
:102C00004A160E946015B8F39923C9F3B6F39F578B
:102C1000550B87FF0E9458160024A0E640EA900159
:102C200080585695979528F4805C660F771F881F0B
:102C300020F026173707480730F4621B730B840B0C
:102C4000202931294A2BA695179407942025312550
:102C50004A2758F7660F771F881F20F02617370777
:102C6000480730F4620B730B840B200D311D411D9E
:102C7000A09581F7B901842F9158880F9695879573
:102C800008959B01AC010C948E150E94E514880BED
:102C9000990B08959F3F31F0915020F487957795D7
:102CA0006795B795880F911D9695879597F9089523
:102CB00091505040660F771F881FD2F70895FB018F
:102CC000DC0101900D920020E1F70895FB01DC0189
:102CD0004150504030F08D910190801919F400203E
:102CE000B9F7881B990B0895FB0151915523A9F061
:102CF000BF01DC014D9145174111E1F759F4CD01B8
:102D00000190002049F04D9140154111C9F3FB019C
:102D10004111EFCF81E090E001970895AEE0B0E07F
:102D2000E4E9F6E10C9401130D891E898F89988DD1
:102D300026E02C831A83098397FF02C080E090E885
:102D400001979E838D83AE01455E5F4F698D7A8DBD
:102D5000CE0101960E94BE164D815E8157FD0AC0CC
:102D60002F813885421753070CF49A01020F131F65
:102D7000F80110822E96E4E00C941D13ABE0B0E055
:102D8000E4ECF6E10C94F3127C013B018A01FC01B6
:102D900017821682838181FFC8C1CE0101965C0132
:102DA000F7019381F30193FD859193FF81913F0199
:102DB000882309F453C1853239F493FD859193FF3B
:102DC00081913F01853229F4B70190E00E94AE184D
:102DD000E7CF912C212C312CFFE1F31538F08B3209
:102DE00011F190F4803209F1833229F137FC3CC0B3
:102DF00020ED280F2A3050F536FE20C08AE0989E3C
:102E0000200D1124922E06C08D3291F0803371F77F
:102E1000689430F8F30193FD859193FF81913F0110
:102E20008111DACF21C0689431F8689432F8F2CF7A
:102E3000689433F8EFCF689434F8ECCFEAE02E9E34
:102E4000200D1124222E689435F8E4CF8E3229F417
:102E500036FC04C1689436F8DDCF8C3619F46894DA
:102E600037F8D8CF8836B1F2982F9F7D955493309C
:102E7000E0F08336A1F18337C1F1833509F063C0F7
:102E80002801F2E04F0E511CF801C080D180692D5D
:102E900070E036FC02C06FEF7FEFC6010E94981809
:102EA0004C01689437F882010AC00C5F1F4FFFE3A2
:102EB000F98388248394912C6501E89437F833FED4
:102EC0002DC0522C8114910471F5552009F468CF5E
:102ED000B70180E290E00E94AE185A94F6CFF80154
:102EE000808189830E5F1F4FE4CF2801F2E04F0EEF
:102EF000511CF801C080D180692D70E036FC02C001
:102F00006FEF7FEFC6010E94A3184C018201D5CF5D
:102F1000B70180E290E00E94AE182A9428141904A8
:102F200009F0B0F7CECFF60137FC859137FE8191DD
:102F30006F01B70190E00E94AE1851105A94F1E071
:102F40008F1A9108BFCF843619F0893609F077C0FF
:102F5000F80137FE6BC060817181828193810C5FC3
:102F60001F4FF32DFF763F2E97FF09C09095809558
:102F7000709561957F4F8F4F9F4F689437F82AE087
:102F800030E0A5010E94DE18C82ECA188C2C432CF4
:102F900036FE0CC0E89440F8C91440F434FE05C075
:102FA00032FC03C0F32DFE7E4F2E892C44FE95C0CB
:102FB000FE01EC0DF11D8081803309F087C0242DC6
:102FC000297E422E842D8870582E43FC95C040FEE9
:102FD0008FC09C2C821418F42C0C922C981844FE50
:102FE00091C0B70180E390E00E94AE1842FE09C094
:102FF00088E790E041FE02C088E590E0B7010E94BA
:10300000AE18C91408F48AC0CA94D12C9FEFC91A0B
:10301000D90ACA0CDB1CF60182916F01B70190E05E
:103020000E94AE18AC14BD04B1F74FCF608171811E
:10303000072E000C880B990B0E5F1F4F92CFD32CDD
:10304000E894D4F82AE030E0853739F1232D297F40
:10305000D22E8F3601F148F48835A9F0F701868128
:1030600097812B96E2E10C940F13803749F0883753
:10307000A9F7D4FE02C06894D2F820E130E00DC078
:103080006894D4F8F6CF34FE03C0822F8660D82E21
:1030900020E132E002C028E030E0F801D7FE0FC0A6
:1030A00060817181828193810C5F1F4FA5010E9415
:1030B000DE18C82ECA183D2CE89437F867CF608117
:1030C000718190E080E00E5F1F4FF0CF42FC02C0A4
:1030D000839478CF8394839475CF842D867809F474
:1030E00071CFF6CFB70180E290E00E94AE188394D2
:1030F0008214C0F3512C73CF522C5818821408F448
:103100006ECFF8CF842D867809F47BCF8BE241FE19
:1031100080E247FC8DE2B70190E071CFB70180E318
:1031200090E00E94AE189A946CCF8FEF9FEF99CFEA
:10313000FC010590615070400110D8F78095909582
:103140008E0F9F1F0895FC01615070400190011087
:10315000D8F7809590958E0F9F1F08950F931F931A
:10316000CF93DF93182F092FEB018B8181FD09C0CD
:103170001FEF0FEF812F902FDF91CF911F910F91B4
:10318000089582FF14C02E813F818C819D81281774
:1031900039073CF4E881F981CF010196998388834E
:1031A00010838E819F8101969F838E83E3CFE88574
:1031B000F985812F0995892BA1F3DACFFA01AA2786
:1031C000283051F1203181F1E8946F936E7F6E5F6A
:1031D0007F4F8F4F9F4FAF4FB1E03ED0B4E03CD018
:1031E000670F781F891F9A1FA11D680F791F8A1FFB
:1031F000911DA11D6A0F711D811D911DA11D20D062
:1032000009F468943F912AE0269F11243019305D1B
:103210003193DEF6CF010895462F4770405D41930C
:10322000B3E00FD0C9F7F6CF462F4F70405D4A3359
:1032300018F0495D31FD4052419302D0A9F7EACF21
:10324000B4E0A6959795879577956795BA95C9F750
:1032500000976105710508959B01AC010A2E069443
:103260005795479537952795BA95C9F7620F731FFC
:0C327000841F951FA01D0895F894FFCF47
:10327C0001010100000000D6023602630223039410
:10328C000272028602000000001F05F2044E05C8FF
:10329C0004EB04D804C90466616C736500302E30ED
:1032AC0030004152445F44524F5753494E4553539B
:1032BC005F303031007B226465766963655F6964D9
:1032CC00223A222573222C2274696C745F616E671A
:1032DC006C65223A25732C2274696C745F6F766569
:1032EC00725F7468726573686F6C64223A25732C14
:1032FC002274696C745F6475726174696F6E5F6D52
:10330C0073223A256C752C22627574746F6E5F7023
:10331C00726573736564223A25732C226C6F63613A
:10332C006C5F616C6572745F63616E646964617417
:10333C0065223A25737D000D0A00574946495F4FB7
:10334C004B00574946495F4641494C00485454503C
:10335C005F4641494C0022616C6572745F6C657606
:10336C00656C223A320022616C6572745F6C657612
:10337C00656C223A20320022616C6572745F6C6558
:10338C0076656C223A310022616C6572745F6C65F3
:10339C0076656C223A203100226D6F746F725F6F0C
:1033AC006E223A7472756500226D6F746F725F6F66
:1033BC006E223A2074727565002262757A7A657293
:1033CC005F6F6E223A74727565002262757A7A6547
:1033DC00725F6F6E223A207472756500227265649A
:1033EC005F6C6564223A7472756500227265645F65
:1033FC006C6564223A20747275650022677265658B
:10340C006E5F6C6564223A74727565002267726532
:0E341C00656E5F6C6564223A207472756500FF
:00000001FF
