:100000000C94AA030C94D2030C94D2030C94B11355
:100010000C94B1130C94B1130C94D2030C94D2032E
:100020000C94D2030C94D2030C94D2030C94D203FC
:100030000C94D2030C94D2030C94D2030C94D203EC
:100040000C940F130C94D2030C947F130C9459133B
:100050000C94D2030C94D2030C94D2030C94D203CC
:100060000C9429140C94D203084AD73B3BCE016E62
:1000700084BCBFFDC12F3D6C74319ABD56833DDAFF
:100080003D00C77F11BED9E4BB4C3E916BAAAABE0E
:10009000000000803F005B41545D203C3C20000D8F
:1000A0000A005B41545D203E3E20005B57494649B3
:1000B0005D20436F6E6E656374696F6E2066616963
:1000C0006C6564005B574946495D20436F6E6E6501
:1000D0006374656421005B574946495D20436F6E38
:1000E0006E656374696E6720746F200020207265EE
:1000F000645F6C65643D00202062757A7A65723DAC
:100100000020206D6F746F723D005B50415253456B
:100110005D20616C6572745F6C6576656C3D002274
:1001200061636B5F7265717569726564223A2074F0
:10013000727565002261636B5F72657175697265C6
:1001400064223A747275650022677265656E5F6C31
:100150006564223A20747275650022677265656E67
:100160005F6C6564223A747275650022677265651A
:100170006E5F6C6564223A2066616C73650022676D
:100180007265656E5F6C6564223A66616C736500CA
:10019000227265645F6C6564223A2066616C7365E7
:1001A00000227265645F6C6564223A66616C7365F7
:1001B00000227265645F6C6564223A207472756512
:1001C00000227265645F6C6564223A747275650022
:1001D0002262757A7A65725F6F6E223A2066616C70
:1001E0007365002262757A7A65725F6F6E223A6675
:1001F000616C7365002262757A7A65725F6F6E2238
:100200003A2074727565002262757A7A65725F6F42
:100210006E223A7472756500226D6F746F725F6F33
:100220006E223A2066616C736500226D6F746F7286
:100230005F6F6E223A66616C736500226D6F746F3A
:10024000725F6F6E223A207472756500226D6F7452
:100250006F725F6F6E223A747275650022616C6511
:1002600072745F6C6576656C223A20310022616C95
:100270006572745F6C6576656C223A310022616C40
:100280006572745F6C6576656C223A20224D415828
:10029000220022616C6572745F6C6576656C223A2F
:1002A000224D4158220022616C6572745F6C657644
:1002B000656C223A20320022616C6572745F6C6555
:1002C00076656C223A32005B485454505D2052658A
:1002D000706C793A20005B485454505D2057616936
:1002E00074696E6720666F7220736572766572201E
:1002F000726573706F6E73652E2E2E005B485454BA
:10030000505D20446174612073656E64206661698C
:100310006C6564005B485454505D2053454E442046
:10032000726573706F6E73653A20005B4854545069
:100330005D2053656E64696E6720726571756573C3
:100340007420626F64792E2E2E005B485454505DE9
:100350002043495053454E442070726F6D70742095
:100360006E6F74207265636569766564005B4854DE
:1003700054505D20544350204349505354415254EB
:10038000206661696C6564005B485454505D204F81
:1003900070656E696E672054435020636F6E6E65A2
:1003A0006374696F6E2E2E2E005B485454505D208E
:1003B0005265717565737420627566666572207426
:1003C0006F6F20736D616C6C2100204641494C4574
:1003D0004420E2809420636865636B205344412F7E
:1003E00053434C20776972696E6721002020617A3F
:1003F0003A00202061793A005B4D50555D204E65F2
:10040000757472616C20E280942061783A002064F7
:100410006F6E65005B4D50555D2043616C69627283
:100420006174696E67206E65757472616C20706F9F
:10043000736974696F6E00204F4B005B4D50555DC2
:1004400020496E697469616C6973696E672E2E2E1E
:10045000005B4553505D20526561647920E28094D1
:100460002073746174696F6E206D6F6465207365AD
:1004700074005B4553505D204661696C656420746F
:100480006F207365742073746174696F6E206D6F73
:100490006465005B4553505D204E6F20726573703C
:1004A0006F6E73652066726F6D20455350206D6FBF
:1004B00064756C652120436865636B207769726998
:1004C0006E672E005B4553505D204154204F4B001A
:1004D0005B4553505D2041542074657374206174F2
:1004E00074656D707420005B4553505D20496E69E2
:1004F0007469616C6973696E6720415420696E7418
:100500006572666163652E2E2E000A5B524541447A
:10051000595D20456E746572696E67206D61696E04
:10052000206C6F6F700A005B494E49545D20536F19
:1005300066747761726553657269616C207374616A
:100540007274656420666F72204553502D303100FF
:100550005B494E49545D2049324320737461727483
:100560006564005B494E49545D204750494F206304
:100570006F6E66696775726564003D3D3D3D3D3D4A
:100580003D3D3D3D3D3D3D3D3D3D3D3D3D3D3D3D9B
:100590003D3D3D3D3D3D3D3D3D3D3D3D3D3D3D3D8B
:1005A0003D3D0A002044726F7773696E6573732056
:1005B000446574656374696F6E20E28094204172B3
:1005C0006475696E6F202B204553502D3031000A21
:1005D0003D3D3D3D3D3D3D3D3D3D3D3D3D3D3D3D4B
:1005E0003D3D3D3D3D3D3D3D3D3D3D3D3D3D3D3D3B
:1005F0003D3D3D3D3D3D3D3D005B414C4552545DE3
:100600002053696C656E636564005B42544E5D20E7
:100610005072657373656420E280942073696C6521
:100620006E63696E6720616C65727473005B544918
:100630004C545D2052657475726E656420746F2031
:100640006E6F726D616C3A20005B414C4552545D97
:10065000204C6F63616C2066616C6C6261636B201F
:100660007472696767657265642100C2B0203E20BC
:10067000005B54494C545D2045786365656465644E
:10068000207468726573686F6C643A20005B48542C
:1006900054505D20536B697070656420E280942033
:1006A0006E6F2057692D4669005B485454505D2099
:1006B000504F5354206661696C656420E280942039
:1006C00077696C6C207265747279206E657874201D
:1006D0006379636C65005B574946495D20417474DA
:1006E000656D7074696E67207265636F6E6E6563A9
:1006F000742E2E2E0000000000240027002A000087
:1007000000000800020100000304070000000000D0
:100710000000000000000023002600290000000067
:1007200000250028002B000404040404040404022F
:10073000020202020203030303030301020408107E
:10074000204080010204081020010204081020004B
:100750004815491C11241FBECFEFD8E0DEBFCDBF26
:1007600013E0A0E0B1E0ECE3FAE402C005900D92E2
:10077000A030B107D9F725E0A0E0B3E001C01D9299
:10078000AC32B207E1F713E0C9EAD3E004C0219725
:10079000FE010E94391EC83AD107C9F70E941816F7
:1007A0000C9411250C940000833081F028F48130E2
:1007B00099F08230A9F008958730A9F08830C9F007
:1007C0008430B1F4809180008F7D03C080918000DF
:1007D0008F7780938000089584B58F7784BD0895C6
:1007E00084B58F7DFBCF8091B0008F778093B00070
:1007F00008958091B0008F7DF9CF1F93CF93DF9341
:10080000282F30E0F901E150F94F8491F901E55CBE
:10081000F84FD491F901E95DF84FC491CC23A9F0C8
:10082000162F81110E94D403EC2FF0E0EE0FFF1F72
:10083000E35EF84FA591B4918FB7F894EC91111144
:1008400008C0D095DE23DC938FBFDF91CF911F913D
:100850000895DE2BF8CFCF93DF9390E0FC01E55CA9
:10086000F84F2491895D984FFC0184918823C9F049
:1008700090E0880F991FFC01EB50F94FA591B491BE
:10088000FC01E35EF84FC591D49161110DC09FB793
:10089000F8948C91209582238C9388812823288337
:1008A0009FBFDF91CF910895623051F49FB7F894C4
:1008B0003C91822F809583238C93E8812E2BEFCF60
:1008C0008FB7F894EC912E2B2C938FBFEACF3FB7C4
:1008D000F8948091C9039091CA03A091CB03B09181
:1008E000CC0326B5A89B05C02F3F19F00196A11D8A
:1008F000B11D3FBFBA2FA92F982F8827BC01CD016A
:10090000620F711D811D911D42E0660F771F881FC8
:10091000991F4A95D1F708958F929F92AF92BF92F7
:10092000CF92DF92EF92FF924B015C010E9467042D
:100930006B017C010E9467046C197D098E099F0977
:10094000683E734081059105A8F321E0821A910861
:10095000A108B10888EEC80E83E0D81EE11CF11C86
:1009600081149104A104B10429F7FF90EF90DF9066
:10097000CF90BF90AF909F908F9008952FB7F8942D
:100980006091C5037091C6038091C7039091C8031D
:100990002FBF089508950895EF92FF920F931F932C
:1009A000CF93DF938C017B01D0E0C0E0F701EC0F27
:1009B000FD1F6491662361F0D801ED91FC910190D7
:1009C000F081E02DC8010995892B11F02196EECF19
:1009D000CE01DF91CF911F910F91FF90EF9008957D
:1009E000AF92BF92CF92DF92EF92FF920F931F933D
:1009F000CF93DF936C017B018B01040F151FEB017B
:100A00005E01AE18BF08C017D10759F06991D60131
:100A1000ED91FC910190F081E02DC6010995892BA3
:100A200079F7C501DF91CF911F910F91FF90EF9062
:100A3000DF90CF90BF90AF900895FC01538D448D0F
:100A4000252F30E0842F90E0821B930B541710F079
:100A5000CF96089501970895FC01918D828D981786
:100A600061F0A28DAE0FBF2FB11D5D968C91928D5E
:100A70009F5F9F73928F90E008958FEF9FEF08958F
:100A8000FC01918D828D981731F0828DE80FF11D58
:100A9000858D90E008958FEF9FEF0895FC01918D73
:100AA000228D892F90E0805C9F4F821B91098F736C
:100AB000992708958FE394E00E944E0521E0892B49
:100AC00009F420E0822F089580E090E0892B29F03E
:100AD0000E945A0581110C9400000895FC01A48D18
:100AE000A80FB92FB11DA35ABF4F2C91848D90E050
:100AF00001968F739927848FA689B7892C93A08933
:100B0000B1898C91837080648C93938D848D9813BC
:100B100006C00288F389E02D80818F7D808308954F
:100B2000EF92FF920F931F93CF93DF93EC0181E03D
:100B3000888F9B8D8C8D98131AC0E889F9898081E4
:100B400085FF15C09FB7F894EE89FF896083E88917
:100B5000F98980818370806480839FBF81E090E009
:100B6000DF91CF911F910F91FF90EF900895F62E96
:100B70000B8D10E00F5F1F4F0F731127E02E8C8D30
:100B80008E110CC00FB607FCFACFE889F989808175
:100B900085FFF5CFCE010E946E05F1CFEB8DEC0FF6
:100BA000FD2FF11DE35AFF4FF0829FB7F8940B8F92
:100BB000EA89FB8980818062CFCFCF93DF93EC01FC
:100BC000888D8823B9F0AA89BB89E889F9898C9135
:100BD00085FD03C0808186FD0DC00FB607FCF7CFF1
:100BE0008C9185FFF2CF808185FFEDCFCE010E94F1
:100BF0006E05E9CFDF91CF91089520918A0330915E
:100C00008B032817390771F4909188038091890329
:100C1000981741F0E0918803F0E0EC5BFC4F808195
:100C200090E008958FEF9FEF08950895EF92FF925F
:100C30000F931F93CF93DF93DC015C96ED90FC90B4
:100C40005D97E114F10479F481E090E013969C93B0
:100C50008E93129790E080E0DF91CF911F910F91DA
:100C6000FF90EF9008955196ED91FC915297509618
:100C70008C915097982F90950FB75E962C915E9718
:100C8000122F127021FD6095F8942081112319F123
:100C9000282B2083E7012197F1F728E0462F50E029
:100CA000308160FF1AC0382B3083E7012197F1F7BC
:100CB000BA0175956795215089F7112381F08081DC
:100CC000892380830FBF5C968D919C910197F1F7EA
:100CD00081E090E0C1CF2923DCCF3923E5CF90819B
:100CE000892BEFCF20918A0330918B032817390786
:100CF00061F4809189032091880390E0805C9F4F8C
:100D0000821B91098F739927089590E080E00895E0
:100D100020918A0330918B0328173907B9F49091F9
:100D2000880380918903981789F0E0918803F0E0A7
:100D3000EC5BFC4F80812091880330E02F5F3F4FB8
:100D40002F7333272093880390E008958FEF9FEF50
:100D5000089520912103260F3327331F21323105B7
:100D6000ECF420911504FC0190E080E0243069F05F
:100D700082E00895A09121032191AC014F5F5C4F67
:100D8000A40FB52FB11D2C930196861798F380916F
:100D90002103680F6093210380E0089581E00895A6
:100DA0001092150481E0809314041092EF0361E027
:100DB00082E10E94FD0361E083E10E94FD03E9EB13
:100DC000F0E080818E7F808380818D7F808388E4C6
:100DD0008093B80085E48093BC000895CF93DF939F
:100DE00091E0909300038823B9F0C091B800D091AE
:100DF000BA008091BC008A7B8093BC0060E082E1F5
:100E00000E94FD0360E083E10E94FD030E94D00682
:100E1000D093BA00C093B800DF91CF9108958F921C
:100E20009F92AF92BF92CF92DF92EF92FF920F9379
:100E30001F93CF93DF93D0913E04D13208F0D7C0F7
:100E4000182FC0913D040E9467046B017C018091C2
:100E5000150481116BC082E0809315041093140473
:100E60008FEF8093130410921204D0931104ADE11C
:100E7000B4E0E1EFF3E080E0D81391C01092F0030A
:100E80008091F003CC0FC82BC093F0038091EF0347
:100E9000813009F088C01092EF030E9467046B0153
:100EA0007C018091F0038093BB00809117049091A6
:100EB0001804A0911904B0911A04892B8A2B8B2B4A
:100EC000A1F00E946704009117041091180420916A
:100ED000190430911A046C197D098E099F090617AF
:100EE00017072807390708F442C08091BC0083FD2A
:100EF000D8CF85EC8093BC000E9467046B017C0115
:100F000080911504823009F450C0809113048F3F02
:100F100009F46FC080911304803209F46CC0809191
:100F20001304803309F469C084E026C0809117045B
:100F300090911804A0911904B0911A04892B8A2B5E
:100F40008B2B09F484CF0E94670480901704909043
:100F50001804A0901904B0901A046C197D098E0928
:100F60009F0986169706A806B90608F070CF8091EB
:100F700016040E94EE0685E010921C0410923E04B6
:100F800010921B04DF91CF911F910F91FF90EF9072
:100F9000DF90CF90BF90AF909F908F9008959D91DC
:100FA00091938F5F69CF85EEA5CF809117049091C3
:100FB0001804A0911904B0911A04892B8A2B8B2B49
:100FC00009F49ECF0E946704009117041091180441
:100FD0002091190430911A046C197D098E099F091A
:100FE000061717072807390708F08ACFC0CF81E016
:100FF000C3CF80E0C1CF82E0BFCF83E0BDCF0F93EE
:101000001F93CF93DF938A01E901209711F4CCED70
:10101000D4E091E090931B0480933D0410921C0453
:1010200010923E04E881F9810190F081E02DCE011B
:101030000995E881F9810190F081E02DD8016C914A
:10104000CE01099581E00E940F0791E0811190E0A7
:10105000892FDF91CF911F910F910895E091CE03D9
:101060008091CD03E81730F4F0E0E153FC4F80812C
:1010700090E008958FEF9FEF08959091CE038091B7
:10108000CD032FEF3FEF981748F4E92FF0E0E1533D
:10109000FC4F208130E09F5F9093CE03C9010895FB
:1010A0008091CD039091CE03891B990B0895CF9227
:1010B000DF92EF92FF920F931F93CF93DF937C0108
:1010C000CB018A0120911B04222389F0EB016B01E3
:1010D000C40ED51ECC15DD0569F06991D701ED91DF
:1010E000FC910190F081E02DC7010995F3CF642FA9
:1010F0000E94A906C801DF91CF911F910F91FF9027
:10110000EF90DF90CF900895CF93DF931F92CDB7EC
:10111000DEB7698320911B042223F9F020913E045D
:10112000203258F021E030E0FC013383228390E04C
:1011300080E00F90DF91CF91089580911C04E82FFB
:10114000F0E0E35EFB4F998190838F5F80931C04F6
:1011500080933E0481E090E0ECCF61E0CE01019607
:101160000E94A906F7CF90E080E008952F923F9269
:101170004F925F926F927F928F929F92AF92BF92A7
:10118000CF92DF92EF92FF920F931F93CF93DF9353
:10119000CDB7DEB72E970FB6F894DEBF0FBECDBF2A
:1011A0008B836E834E8738872F83180147010E94F7
:1011B000BE046B017C018114910421F48CED882E16
:1011C00084E0982E2B81220F2C833E85A32EB12CF8
:1011D000432F41954D831A82198210E001E0C1012D
:1011E000B0E0A0E089879A87AB87BC87A981BA81E4
:1011F000AA15BB050CF016C100931B04BB81B0936C
:101200003D0410921C0410923E04D401ED91FC9117
:101210000190F081E02D6E81C401099581E00E946A
:101220000F070E9467042B013C0180911504811176
:101230006EC0BE85BD87B13210F020E22D870093CD
:101240001504009314043FEF30931304109212041A
:101250008D858150809311040093F0038091F003F9
:101260004C81842B8093F0038091EF03813009F04F
:1012700098C01092EF030E9467042B013C018091FB
:10128000F0038093BB008091170490911804A09103
:101290001904B0911A04892B8A2B8B2BA1F00E9480
:1012A000670420911704309118044091190450915B
:1012B0001A0464197509860997092617370748071C
:1012C000590708F445C08091BC0083FDD8CF55EC88
:1012D0005093BC000E9467042B013C0180911504CF
:1012E000813009F462C0809112049D85891718F439
:1012F000A0911204AD87A1EFB3E0EFECF3E080E042
:101300002D85821751F19D9191938F5FF9CF809137
:10131000170490911804A0911904B0911A04892B14
:101320008A2B8B2B09F481CF0E946704209117042C
:10133000309118044091190450911A0464197509E8
:1013400086099709261737074807590708F06DCF10
:10135000809116040E94EE061D861092CE033D85F4
:101360003093CD03D401ED91FC910084F185E02D03
:10137000C4010995892B09F44AC021143104B9F537
:10138000D401ED91FC910284F385E02DC40109950F
:10139000EF81F885E10FF11D17FDFA9580831F5F3E
:1013A000E1CF85EE8093BC0095CF8091170490919A
:1013B0001804A0911904B0911A04892B8A2B8B2B45
:1013C00009F48CCF0E94670420911704309118040F
:1013D0004091190450911A046419750986099709F6
:1013E000261737074807590708F078CFB1CF0E9472
:1013F000BE046C197D098E099F0929853A854B85A4
:101400005C85621773078407950708F4B9CF498193
:101410005A814A0D5B1D5A8349835E858D81580F21
:101420005E87E4CE21143104C1F00E94BE04AB01FA
:10143000BC014C195D096E097F09C101B0E0A0E053
:10144000481759076A077B0740F0812F012E000CCF
:10145000990B8A159B050CF41FEF812F2E960FB662
:10146000F894DEBF0FBECDBFDF91CF911F910F91DA
:10147000FF90EF90DF90CF90BF90AF909F908F90B4
:101480007F906F905F904F903F902F9008952F9294
:101490003F924F925F926F927F928F929F92AF9204
:1014A000BF92CF92DF92EF92FF920F931F93CF9351
:1014B000DF934C015B016A01390128011701C8EE75
:1014C000D4E0E980FA8008EE13E02BEE34E04EE041
:1014D0006BE388810E94B6088B819C8198278927BD
:1014E0009827F401918380838D819E819827892795
:1014F0009827F501918380838F8198859827892784
:101500009827F601918380838B859C85982789276E
:101510009827F301918380838D859E85982789275D
:101520009827F201918380838F859889982789274E
:101530009827F10191838083DF91CF911F910F91C3
:10154000FF90EF90DF90CF90BF90AF909F908F90E3
:101550007F906F905F904F903F902F9008957F9273
:101560008F929F92AF92BF92CF92DF92EF92FF92B3
:101570000F931F93CF93DF9300D0CDB7DEB7A82E84
:10158000962E742E822EB02E08EE13E09E012E5F52
:101590003F4F41E00E94B6088823C1F1872D88198A
:1015A000990BAC014F5F5F4F81E090E002C0880F64
:1015B000991F8A94E2F70197042E01C0880F0A94BC
:1015C000EAF72B2D01C0220F4A95EAF7B82EB09406
:1015D0009A81B92282238B298A8389839701AE015C
:1015E0004F5F5F4F692D8A2D0E94FF070F900F906C
:1015F000DF91CF911F910F91FF90EF90DF90CF90EF
:10160000BF90AF909F908F907F90089580E0EECF35
:10161000CF93DF93DC0114962D913C911597232BEA
:1016200079F0FB01CD91DC9160817181CE010E9446
:101630004922009729F08C1B9D0BDF91CF910895D3
:101640008FEF9FEFFACF0F931F93CF93DF93EC01B0
:1016500088819981009759F02A813B8126173707A5
:1016600030F081E0DF91CF911F910F9108958B01B0
:101670006F5F7F4F0E947C21009759F09983888388
:101680001B830A832C813D81232B59F7FC01108297
:10169000E8CF80E0E7CFFC0180819181009711F0D5
:1016A0000C94F3200895FB0101900020E9F7319795
:1016B000AF01461B570BDC01ED91FC910280F381D9
:1016C000E02D0994CF93DF93BC018FE394E00E9457
:1016D000CC04EC016EE371E08FE394E00E94530BC5
:1016E0008C0F9D1FDF91CF9108958F929F92AF92A3
:1016F000BF920F931F93CF93DF93CDB7DEB7A19720
:101700000FB6F894DEBF0FBECDBF19A2423008F469
:101710004AE08E010F5D1F4F842E912CB12CA12C1D
:10172000A50194010E94EF1DE62FB901CA01EA301C
:1017300004F5E05DD801EE938D01232B242B252B9E
:1017400079F790E080E0109729F0BD018FE394E0F5
:101750000E94530BA1960FB6F894DEBF0FBECDBF0B
:10176000DF91CF911F910F91BF90AF909F908F907D
:101770000895E95CDFCFCF92DF92EF92FF92CF9393
:10178000DF936C01990FEE08FF08F7FE19C06DE2B8
:101790008FE394E00E949005EC0166277727CB0148
:1017A0006C197D098E099F094AE00E94750B8C0F08
:1017B0009D1FDF91CF91FF90EF90DF90CF90089524
:1017C0004AE0C701B601DF91CF91FF90EF90DF9023
:1017D000CF900C94750BCF93DF930E94BB0BEC0161
:1017E0006EE371E08FE394E00E94530B8C0F9D1F1A
:1017F000DF91CF9108954F925F926F927F928F9277
:101800009F92AF92BF92CF92DF92EF92FF920F938F
:101810001F93CF936B017C01742EAC019B010E943E
:101820003D2061E471E0811126C046015701E89432
:10183000B7F82FEF3FEF4FE75FE7C501B4010E9414
:101840003D2081110CC02FEF3FEF4FE75FE7C5014F
:10185000B4010E94751C65E471E0181664F02FEF66
:101860003FEF4FE75FE4C701B6010E94E61F18167D
:10187000ACF469E471E08FE394E0CF911F910F9194
:10188000FF90EF90DF90CF90BF90AF909F908F90A0
:101890007F906F905F904F900C94530B2FEF3FEF22
:1018A0004FE75FECC701B6010E94751C87FDE1CFD1
:1018B00020E030E0A901C701B6010E94751C10E0CC
:1018C00000E087FF0AC06DE28FE394E00E9490057C
:1018D0008C01F7FAF094F7F8F094C0E060E070E063
:1018E00080E09FE37C1641F020E030E040E251E4EC
:1018F0000E941E1FCF5FF6CFA70196010E94401ED7
:101900002B013C010E94901F4B015C014AE00E94A8
:10191000750B7C01E00EF11ECC23C1F1C501B401B1
:101920000E947A1C9B01AC01C301B2010E943F1EC0
:101930004B015C016EE28FE394E00E949005E80E9B
:10194000F91EC15018F120E030E040E251E4C50139
:10195000B4010E94DB1C2B013C010E94901F4B0133
:10196000B12CA12C4AE0C501B4010E94750BE80E10
:10197000F91EC501B4010E947A1C9B01AC01C30190
:10198000B2010E943F1E4B015C01DBCFC701CF912A
:101990001F910F91FF90EF90DF90CF90BF90AF908D
:1019A0009F908F907F906F905F904F900895CF930E
:1019B000DF93FC0144815581608171818FE394E064
:1019C0000E94F004EC016EE371E08FE394E00E946A
:1019D000530B8C0F9D1FDF91CF910895CF93DF9311
:1019E000D0E0C0E0009731F0BC018FE394E00E94AA
:1019F000530BEC016EE371E08FE394E00E94530B14
:101A00008C0F9D1FDF91CF910895EF92FF920F935E
:101A10001F93CF93DF93EC018B01198218821B82F5
:101A20001A821D821C82CB010E946C1C7C01BC01AD
:101A3000CE010E94230B28813981811113C0211509
:101A4000310519F0C9010E94F320198218821D8204
:101A50001C821B821A82DF91CF911F910F91FF9000
:101A6000EF900895FD82EC82B801C901DF91CF911A
:101A70001F910F91FF90EF900C94651CEF92FF92D5
:101A80000F931F93CF93DF93EC017B011982188290
:101A90001B821A821D821C82FB0101900020E9F743
:101AA00031978F01061B170BB8010E94230B288169
:101AB0003981811113C02115310519F0C9010E9426
:101AC000F320198218821D821C821B821A82DF91E8
:101AD000CF911F910F91FF90EF9008951D830C837C
:101AE000B701C901DF91CF911F910F91FF90EF9046
:101AF0000C9442222F923F924F925F926F927F926C
:101B00008F929F92AF92BF92CF92DF92EF92FF920D
:101B10000F931F93CF93DF9300D0CDB7DEB71C0197
:101B20006A017B0160E471E00E943E0D60E071E0BB
:101B3000C1010E94230B0E94BE044B015C010E9464
:101B4000BE042B013C0189E095E00E947206892BBE
:101B500051F189E095E00E94880689831A82F1019B
:101B6000048115810F5F1F4FB801C1010E94230B33
:101B7000882379F0F1012081318184819581BE0132
:101B80006F5F7F4F820F931F0E944222F1011583E6
:101B900004830E94BE042B013C01F10184819581E4
:101BA0008130924080F20E94BE0464197509860952
:101BB0009709693C71058105910528F0F10184813F
:101BC0009581892B61F40E94BE04681979098A09FC
:101BD0009B09C616D706E806F90608F0B4CFC1017E
:101BE0000F900F90DF91CF911F910F91FF90EF9089
:101BF000DF90CF90BF90AF909F908F907F906F902D
:101C00005F904F903F902F9008958F929F92AF9248
:101C1000BF92EF92FF920F931F93CF93DF93CDB7B5
:101C2000DEB72C970FB6F894DEBF0FBECDBF8C0188
:101C30007B0149015A0189E095E00E947206892BD7
:101C400029F089E095E00E948806F5CF62EA70E00D
:101C50008FE394E00E94CC04C8010E94EE0CB8010E
:101C600089E095E00E94530B6FE970E089E095E010
:101C70000E94CC04B501A401CE0107960E947A0D02
:101C800066E970E08FE394E00E94CC04CE010796F1
:101C90000E94D70CB701CE0101960E943E0DBE01F5
:101CA0006F5F7F4FCE0107960E94080B8C01CE011B
:101CB00001960E944B0BCE0107960E944B0B81E0D0
:101CC0000F3F1F4F09F480E02C960FB6F894DEBF4B
:101CD0000FBECDBFDF91CF911F910F91FF90EF907D
:101CE000BF90AF909F908F90089585ED8093BC003A
:101CF0008091170490911804A0911904B0911A04CE
:101D00000796A11DB11D23E0B695A79597958795D8
:101D10002A95D1F72091BC0024FD03C01092150430
:101D2000089540911704509118046091190470911E
:101D30001A04452B462B472B69F30097A105B105E3
:101D400041F02AE22A95F1F700C00197A109B109F3
:101D5000E1CF809116040C94EE06AF92BF92CF9221
:101D6000DF92EF92FF920F931F93CF93DF93CDB744
:101D7000DEB7C451D3400FB6F894DEBF0FBECDBF5F
:101D80008091980342E551E0882311F04DE451E041
:101D90008091930322E531E0882311F02DE431E0B6
:101DA0006091990370919A03E0919B03F0919C03D9
:101DB0008091A103811175C082E591E05F934F93FB
:101DC0003F932F93FF93EF937F936F939F938F9303
:101DD0008091BE038F938091BD038F938091BC034C
:101DE0008F938091BB038F9388E591E09F938F93AE
:101DF0008BE691E09F938F93FF24F394FF921F92C1
:101E00008E010F571E4F1F930F930E946322F801FC
:101E100001900020E9F73197E01BF10B1F930F931E
:101E2000FF93EF9383E1A82EAF9298E8B92EBF926B
:101E30000FEE11E01F930F938CEF91E09F938F9320
:101E400084E092E09F938F93FF9280E88F939E01AE
:101E50002F5F3F4F69013F932F930E9463227C01C4
:101E600001970FB6F894DEBF0FBECDBF8F379140FC
:101E7000D8F089EA93E00E94620B10E0812FCC5EDB
:101E8000DC4F0FB6F894DEBF0FBECDBFDF91CF9110
:101E90001F910F91FF90EF90DF90CF90BF90AF9088
:101EA00008958DE491E08ACFAF92BF921F930F9374
:101EB0008FE692E09F938F931F9280E58F938E0120
:101EC0000F571D4F1F930F930E94632288E893E0E2
:101ED0000E94620B28E833E140E050E069E872E0DC
:101EE000C8010E94050E182F0FB6F894DEBF0FBE72
:101EF000CDBF8DE693E0112319F1FF92EF928DE9AA
:101F000092E09F938F931F9280E28F938E010F52E6
:101F10001D4F1F930F930E94632228E833E140E096
:101F200050E06BEA72E0C8010E94050E182F0FB650
:101F3000F894DEBF0FBECDBF81110FC08AE493E0DD
:101F40000E94620B20ED37E040E050E062EB72E06F
:101F500081E992E00E94050E91CF8BE293E00E940E
:101F6000620BB60189E095E00E94530B48E853E10B
:101F700060E070E0CE01875F9C4F0E947A0D64E1C3
:101F800073E08FE394E00E94CC04CE01875F9C4F06
:101F90000E94D70C6DEA72E0CE018F509D4F0E94D7
:101FA0003E0DBE016F507D4FCE01875F9C4F0E945A
:101FB000080B7C01CE018F509D4F0E944B0BEF20F0
:101FC000E094A9F48CEF92E00E94620B20ED37E0E0
:101FD00040E050E062EB72E081E992E00E94050E81
:101FE00010E0CE01875F9C4F0E944B0B47CF86EDE0
:101FF00092E00E94620B48E853E160E070E0CE019D
:10200000815F9C4F0E947A0D67EC72E08FE394E051
:102010000E94CC04CE01815F9C4F0E94D70CCD5E04
:10202000DC4F88819981C351D340892B09F4BAC10F
:1020300067EB72E0CE018F509D4F0E94050DBE01EF
:102040006F507D4FCE01815F9C4F0E94080B012F86
:10205000019609F044C066EA72E0CE0189509D4FB6
:102060000E94050DBE0169507D4FCE01815F9C4FDE
:102070000E94080B019671F562E972E0CE0183506F
:102080009D4F0E94050DBE0163507D4FCE01815FC3
:102090009C4F0E94080B0196C1F46DE772E0CE01DF
:1020A0008D5F9C4F0E94050DBE016D5F7C4FCE0180
:1020B000815F9C4F0E94080B01E0019609F400E04B
:1020C000CE018D5F9C4F0E944B0BCE0183509D4FE4
:1020D0000E944B0BCE0189509D4F0E944B0BCE01AD
:1020E0008F509D4F0E944B0B82E090E0011134C055
:1020F0006DE672E0CE018F509D4F0E94050DBE012E
:102100006F507D4FCE01815F9C4F0E94080B012FC5
:102110000196C1F46CE572E0CE0189509D4F0E949A
:10212000050DBE0169507D4FCE01815F9C4F0E941D
:10213000080B01E0019609F400E0CE0189509D4FA3
:102140000E944B0BCE018F509D4F0E944B0B0023E2
:1021500009F43AC181E090E09093A8038093A7032B
:102160006CE472E0CE018F509D4F0E94050DBE01C0
:102170006F507D4FCE01815F9C4F0E94080B012F55
:102180000196C1F46BE372E0CE0189509D4F0E942D
:10219000050DBE0169507D4FCE01815F9C4F0E94AD
:1021A000080B01E0019609F400E0CE0189509D4F33
:1021B0000E944B0BCE018F509D4F0E944B0B002372
:1021C00009F407C181E08093B00367E072E0CE01BB
:1021D0008F509D4F0E94050DBE016F507D4FCE0167
:1021E000815F9C4F0E94080B012F0196C1F465EF9F
:1021F00071E0CE0189509D4F0E94050DBE016950CE
:102200007D4FCE01815F9C4F0E94080B01E001963B
:1022100009F400E0CE0189509D4F0E944B0BCE0186
:102220008F509D4F0E944B0B002309F407C181E0A2
:102230008093AF0361EC71E0CE018F509D4F0E94FF
:10224000050DBE016F507D4FCE01815F9C4F0E94F6
:10225000080B012F0196C1F461EB71E0CE018950AA
:102260009D4F0E94050DBE0169507D4FCE01815FDB
:102270009C4F0E94080B01E0019609F400E0CE019A
:1022800089509D4F0E944B0BCE018F509D4F0E9455
:102290004B0B002309F407C181E08093A9036EE78B
:1022A00071E0CE018F509D4F0E94050DBE016F5011
:1022B0007D4FCE01815F9C4F0E94080B012F01963C
:1022C000C1F46BE671E0CE0189509D4F0E94050D6F
:1022D000BE0169507D4FCE01815F9C4F0E94080B6B
:1022E00001E0019609F400E0CE0189509D4F0E9463
:1022F0004B0BCE018F509D4F0E944B0B002309F4D6
:1023000007C11092010164E371E0CE018F509D4F2F
:102310000E94050DBE016F507D4FCE01815F9C4F25
:102320000E94080B019661F46FE171E0CE018950C3
:102330009D4F0E94050DCE0189509D4F0E944B0B71
:10234000CE018F509D4F0E944B0B6AE071E08FE3EE
:1023500094E00E94CC048091A7039091A8030E946E
:10236000BB0B61E071E08FE394E00E94CC048091AC
:10237000B00390E00E94BB0B67EF70E08FE394E046
:102380000E94CC048091AF0390E00E94BB0B6CEEE6
:1023900070E08FE394E00E94CC048091A90390E068
:1023A0000E94EB0B20ED37E040E050E062EB72E082
:1023B00081E992E00E94050E10929303CE01815FA5
:1023C0009C4F0E944B0B0DCE1092A8031092A703B6
:1023D000C7CE6AE272E0CE018F509D4F0E94050D7C
:1023E000BE016F507D4FCE01815F9C4F0E94080B54
:1023F000012F0196C1F468E172E0CE0189509D4F32
:102400000E94050DBE0169507D4FCE01815F9C4F3A
:102410000E94080B01E0019609F400E0CE0189500A
:102420009D4F0E944B0BCE018F509D4F0E944B0B36
:10243000002309F4CACE1092B003C7CE63EE71E058
:10244000CE018F509D4F0E94050DBE016F507D4FF4
:10245000CE01815F9C4F0E94080B012F0196C1F4B1
:1024600060ED71E0CE0189509D4F0E94050DBE01C7
:1024700069507D4FCE01815F9C4F0E94080B01E0A7
:10248000019609F400E0CE0189509D4F0E944B0B4C
:10249000CE018F509D4F0E944B0B002309F4CACEF2
:1024A0001092AF03C7CE61EA71E0CE018F509D4F0D
:1024B0000E94050DBE016F507D4FCE01815F9C4F84
:1024C0000E94080B012F0196C1F460E971E0CE0172
:1024D00089509D4F0E94050DBE0169507D4FCE0170
:1024E000815F9C4F0E94080B01E0019609F400E017
:1024F000CE0189509D4F0E944B0BCE018F509D4FB6
:102500000E944B0B002309F4CACE1092A903C7CE38
:102510006AE571E0CE018F509D4F0E94050DBE010E
:102520006F507D4FCE01815F9C4F0E94080B012FA1
:102530000196C1F468E471E0CE0189509D4F0E947C
:10254000050DBE0169507D4FCE01815F9C4F0E94F9
:10255000080B01E0019609F400E0CE0189509D4F7F
:102560000E944B0BCE018F509D4F0E944B0B0023BE
:1025700009F4C9CE81E080930101C5CE0F931F936A
:10258000CF93DF93CDB7DEB7C058D1090FB6F8941B
:10259000DEBF0FBECDBF66ED70E08FE394E00E941A
:1025A000CC0485EB92E00E94EE0C83EC92E09F93CA
:1025B0008F9385EB92E09F938F938CEC92E09F93A7
:1025C0008F931F9280E88F938E010F5F1F4F1F9391
:1025D0000F930E94632228E93AE340E050E06FED58
:1025E00072E0C8010E94050E182F0FB6F894DEBFE6
:1025F0000FBECDBF8BEA90E0112311F084EC90E088
:102600000E94620B812FC058DF4F0FB6F894DEBFD7
:102610000FBECDBFDF91CF911F910F9108951F92F3
:102620000F920FB60F9211242F933F938F939F9386
:10263000AF93BF938091C5039091C603A091C70348
:10264000B091C8033091C40323E0230F2D3758F510
:102650000196A11DB11D2093C4038093C5039093DF
:10266000C603A093C703B093C8038091C903909198
:10267000CA03A091CB03B091CC030196A11DB11D5B
:102680008093C9039093CA03A093CB03B093CC0368
:10269000BF91AF919F918F913F912F910F900FBE5E
:1026A0000F901F90189526E8230F0296A11DB11DCB
:1026B000D2CF1F920F920FB60F9211242F933F93F8
:1026C0004F935F936F937F938F939F93AF93BF933A
:1026D000EF93FF938FE394E00E946E05FF91EF91DB
:1026E000BF91AF919F918F917F916F915F914F912A
:1026F0003F912F910F900FBE0F901F9018951F9232
:102700000F920FB60F9211242F938F939F93EF93F5
:10271000FF93E0914F04F09150048081E0915504C3
:10272000F091560482FD1BC09081809158048F5F08
:102730008F7320915904821741F0E0915804F0E022
:10274000E15CFB4F958F80935804FF91EF919F912F
:102750008F912F910F900FBE0F901F901895808131
:10276000F4CF1F920F920FB60F9211242F933F9325
:102770004F935F936F937F938F939F93AF93BF9389
:10278000EF93FF93E0918A03F0918B03309749F028
:10279000A685B7858585968D91FF14C09C91892368
:1027A000A1F4FF91EF91BF91AF919F918F917F9194
:1027B0006F915F914F913F912F910F900FBE0F90AE
:1027C0001F9018959C91892361F7A389B4899C91E6
:1027D0008589809589238C93868997890197F1F75C
:1027E000608D718DA685B785558538E020E0CB01D9
:1027F0000197F1F7822F90E095958795282F4C91BE
:10280000452309F02068315091F7868D81FD209590
:102810008091890390E001968F7399273091880306
:10282000381799F0A0918903B0E0AC5BBC4F2C93B2
:1028300080938903828D938D0197F1F7A389B489E1
:102840008C919589892B8C93ACCF868D8160868FF6
:10285000F1CF1F920F920FB60F9211242F933F9337
:102860004F935F936F937F938F939F93AF93BF9398
:10287000EF93FF938091B900887F803609F44AC0B6
:10288000F0F5883209F4A7C018F5803109F49BC02F
:10289000B8F4882309F4F9C0883009F494C0FF9192
:1028A000EF91BF91AF919F918F917F916F915F91C8
:1028B0004F913F912F910F900FBE0F901F90189541
:1028C000883109F488C0803251F78093130414C012
:1028D000803409F49DC040F48033B9F38833F9F6AD
:1028E0008093130485ECB0C0803509F485C0883529
:1028F00009F496C0883499F60E94750ED0CF8839B5
:1029000009F48CC038F5883729F050F4883611F076
:10291000803729F683E0809315041092430357C053
:10292000883809F47BC0803919F0803809F0B7CFB6
:1029300080914303803208F071C0E091430381E04D
:102940008E0F809343038091BB00F0E0ED5DFC4F60
:1029500080833DC0803B39F0E0F4803A09F479C0CF
:10296000883A09F09CCF84E08093150410922203EA
:1029700010922103E0918603F091870309958091DD
:10298000210381110FC081E0809321031092010384
:1029900009C0803C09F4A6CF883C09F4A3CF883B4A
:1029A00009F07DCFE091220381E08E0F8093220316
:1029B000F0E0EF5FFC4F80818093BB009091220399
:1029C0008091210329C08091F0038093BB0085ECA6
:1029D0008093BC0064CF90911204809111049817E9
:1029E00058F5E091120481E08E0F80931204F0E01C
:1029F000EF50FC4F8081E9CFE091120481E08E0F0F
:102A0000809312048091BB00F0E0EF50FC4F808374
:102A100090911204809111049817C8F285E8D8CFDC
:102A2000E091120481E08E0F809312048091BB002C
:102A3000F0E0EF50FC4F80838091140481115CCF53
:102A400081E08093EF0384EA8093BC001092150428
:102A500026CF85EC8093BC0010921504809143032F
:102A6000803230F4E0914303F0E0ED5DFC4F1082E2
:102A70006091430370E0E0918403F091850383E269
:102A800093E00995109243030ACF1092130434CFB8
:102A9000109242041092410488EE93E0A0E0B0E06E
:102AA0008093430490934404A0934504B093460458
:102AB0002CE031E03093400420933F0425EC30E0DB
:102AC00030934C0420934B0424EC30E030934E04BC
:102AD00020934D0420EC30E03093500420934F04B9
:102AE00021EC30E0309352042093510422EC30E08A
:102AF000309354042093530426EC30E03093560472
:102B000020935504109258041092590410925A04BC
:102B100010925B041092DF041092DE048093E004B4
:102B20009093E104A093E204B093E3042EE131E03A
:102B30003093DD042093DC0410920C0510920B05F9
:102B400080930D0590930E05A0930F05B09310058B
:102B500080E391E090930A05809309051092200587
:102B600010921F0510922205109221051092240543
:102B700010922305109226051092250560912705D5
:102B80006E7F6D7F609327056695617081E0682791
:102B900083E00E94FD0361E083E00E942B04EEE3EA
:102BA000F7E0E491E0931905EAE2F7E0E491F0E060
:102BB000EE0FFF1FE35EF84F8591949190931B05F4
:102BC00080931A0560E082E00E942B048091270523
:102BD00081FD04C061E082E00E94FD0382E08093F9
:102BE0001505EDE3F7E0E491E0931605E9E2F7E07F
:102BF000E491F0E0EE0FFF1FED5EF84F85919491A8
:102C0000909318058093170588E68093E804109246
:102C1000EA041092E90488EF9AE2A0E0B0E0809321
:102C2000F9049093FA04A093FB04B093FC04089574
:102C3000CF93DF93CDB7DEB761970FB6F894DEBFC1
:102C40000FBECDBF789484B5826084BD84B58160A9
:102C500084BD85B5826085BD85B5816085BD809167
:102C60006E00816080936E001092810080918100DF
:102C700082608093810080918100816080938100D7
:102C8000809180008160809380008091B100846099
:102C90008093B1008091B00081608093B0008091FA
:102CA0007A00846080937A0080917A0082608093B9
:102CB0007A0080917A00816080937A0080917A0016
:102CC000806880937A001092C100E0914F04F091E7
:102CD000500482E08083E0914B04F0914C04108218
:102CE000E0914D04F0914E0480E1808310925704EE
:102CF000E0915304F091540486E08083E091510404
:102D0000F0915204808180618083E0915104F091C0
:102D10005204808188608083E0915104F0915204D4
:102D2000808180688083E0915104F0915204808119
:102D30008F7D808368EC70E080E090E00E948C04DE
:102D40008FEC95E00E94620B84EA95E00E94620B92
:102D50008AE795E00E94620B61E085E00E942B0407
:102D600061E086E00E942B0461E087E00E942B0472
:102D700061E088E00E942B0460E085E00E94FD0392
:102D800060E086E00E94FD0360E087E00E94FD03B2
:102D900061E088E00E94FD0362E084E00E942B0471
:102DA00083E695E00E94620B1092CE031092CD0351
:102DB00010921C0410923E040E94D0068AEC94E00B
:102DC00090938703809386038BEC94E09093850324
:102DD0008093840380E595E00E94620B6BE374E0CE
:102DE0008FE394E00E94CC04E090E904F090EA04C0
:102DF00001E023E042E06BE68091E8040E94AF0A24
:102E0000E090E904F090EA0400E022E044E06BE1A5
:102E10008091E8040E94AF0AE090E904F090EA048F
:102E200022E044E06CE18091E8040E94AF0AA090A7
:102E3000E904B090EA04D090E804750108EE13E0CC
:102E40009E012F5F3F4F41E06BE68D2D0E94B6083B
:102E500089818F7B89838D879501AE01435F5F4FA9
:102E60006BE68D2D0E94FF07E090E904F090EA04E4
:102E70009E012F5F3F4F41E065E78091E8040E948B
:102E8000B608882339F089818E7790E095958795EB
:102E90008093EB048091EB04843309F4B3C08AEC93
:102EA00093E00E94620B1092C303109224051092CB
:102EB00023051092220510922105109220051092F0
:102EC0001F058FE190E09093260580932505909152
:102ED0001505963108F047C021E030E03093200519
:102EE00020931F052DE130E030932205209321052A
:102EF0002DE030E0309324052093230520916800D5
:102F000084E0983048F031E09E3008F430E081E011
:102F100001C0880F3A95EAF7822B809368002DE66E
:102F200030E0983050F02BE630E09E3030F02CE668
:102F300030E0963110F030E020E030931D05209312
:102F40001C05292F30E0983008F03DC181E001C018
:102F5000880F9A95EAF780931E0580912505909138
:102F600026050197F1F78091230590912405892B7F
:102F700049F1E0918A03F0918B0355E0E930F507C0
:102F800009F1309739F0A389B4899C91858980959E
:102F900089238C93809127058E7F8093270510923B
:102FA00089031092880389E095E090938B038093C6
:102FB0008A03E0911C05F0911D05808190911E050A
:102FC000892B80836CE271E080E090E00E948C04A9
:102FD00087E295E00E94620B87EE94E00E94620B0C
:102FE00068EE73E080E090E00E948C0489E095E058
:102FF0000E947206892B09F4F3C089E095E00E94D3
:103000008806F4CF87E394E00E94620B81E080930E
:10301000C303E090E904F090EA0400E022E044E019
:103020006CE18091E8040E94AF0AE090E904F0901E
:10303000EA0422E044E06BE18091E8040E94AF0AD8
:103040006CE271E080E090E00E948C048091C30308
:10305000882309F42ACF64E174E08FE394E00E94AE
:10306000CC04812C912C5401412C512C32011E8610
:103070001F86188A198AD12CC12C2AE0222E312CC5
:103080009E012F5F3F4F79018E010D5F1F4F2C5F17
:103090003F4FAE01495F5F4FBE01675F7F4FCE017B
:1030A0000B960E94470A8B859C85092E000CAA0B63
:1030B000BB0B2E853F8548895989280F391F4A1F28
:1030C0005B1F2E873F87488B598B89859A85092EF0
:1030D000000CAA0BBB0B480E591E6A1E7B1E8F816B
:1030E0009885092E000CAA0BBB0B880E991EAA1EF0
:1030F000BB1E6AE070E080E090E00E948C04C60194
:10310000B1010E94111E892B29F46EE28FE394E035
:103110000E9490053FEFC31AD30A42E3C416D104BC
:1031200009F0AECF92E3C92ED12CE12CF12C6E85A3
:103130007F8588899989A70196010E94991D3093FE
:103140008D0320938C03C301B201A70196010E9455
:10315000991D3093910320939003C501B401A701F9
:1031600096010E94991D30938F0320938E0381E076
:10317000809392038EE094E00E94620B68EF73E00C
:103180008FE394E00E94CC0480918C0390918D0396
:103190000E94BB0B62EF73E08FE394E00E94CC04CB
:1031A00080919003909191030E94BB0B6CEE73E0B1
:1031B0008FE394E00E94CC0480918E0390918F0362
:1031C0000E94EB0B72CE9E3040F42850310981E012
:1031D00001C0880F2A95EAF7BECE2E503109F7CFED
:1031E00001E010E060ED74E08FE394E00E94CC0415
:1031F000C8010E94EB0B20ED37E040E050E062EBAD
:1032000072E08BEE92E00E94050E8823E9F084ECD8
:1032100094E00E94620B20ED37E040E050E062EB6A
:1032200072E08EEE92E00E94050E20ED37E040E065
:1032300050E062EB72E083EF92E00E94050E811194
:10324000B4C282E794E006C00330110509F0A4C2BD
:1032500083E994E00E94620B1092B5038AE095E046
:103260000E94620B332433940E94BE042B013C0164
:103270008091C303882309F4E3C08091BF03909138
:10328000C003A091C103B091C203A3019201281B06
:10329000390B4A0B5B0BDA01C90184369105A10594
:1032A000B10508F4CDC080919203882309F489C246
:1032B000AE014F5F5F4F7A018E010D5F1F4F9E0180
:1032C0002B5F3F4F4A5F5F4FBE01675F7F4FCE016D
:1032D0000B960E94470A69857A85072E000C880B99
:1032E000990B0E947C1C4B015C016F817885072E35
:1032F000000C880B990B0E947C1C6B017C01A501C2
:103300009401C501B4010E94DB1C4B015C01A701C3
:103310009601C701B6010E94DB1C9B01AC01C501EF
:10332000B4010E94401E0E94F91F6B017C016B8555
:103330007C85072E000C880B990B0E947C1CA70132
:1033400096010E94BF1E6E877F87888B998B609144
:10335000900370919103072E000C880B990B0E942B
:103360007C1C4B015C0160918E0370918F03072ED2
:10337000000C880B990B0E947C1C6B017C01A50141
:103380009401C501B4010E94DB1C4B015C01A70143
:103390009601C701B6010E94DB1C9B01AC01C5016F
:1033A000B4010E94401E0E94F91F6B017C016091D4
:1033B0008C0370918D03072E000C880B990B0E94D3
:1033C0007C1CA70196010E94BF1E6B017C0120E0BE
:1033D00030E044E353E46E857F85888999890E94B3
:1033E000DB1C2BED3FE049E450E40E941E1F4B0123
:1033F0005C0120E030E044E353E4C701B6010E94E1
:10340000DB1C2BED3FE049E450E40E941E1F9B01B2
:10341000AC01C501B4010E943F1EDC01CB01BF77A6
:103420008093BB039093BC03A093BD03B093BE03F2
:103430004092BF035092C0036092C1037092C203D6
:10344000E3E0F7E08491EFE3F7E0F490EBE2F7E0FC
:10345000E49010E000E0EE2099F081110E94D40386
:10346000EE2DF0E0EE0FFF1FED5EF84FA591B49149
:103470008C91F82291E080E009F490E0092F182F58
:10348000F02FF170FF2E0E94BE0420910001F21671
:1034900041F0609394037093950380939603909307
:1034A00097038090940390909503A0909603B0901A
:1034B0009703681979098A099B09633371058105A6
:1034C0009105F0F1012BE1F52223D1F13092930324
:1034D0008AE096E00E94620B1092B0031092AF0354
:1034E0001092A903309201011092A8031092A70331
:1034F000109298031092A1031092990310929A03CC
:1035000010929B0310929C0310929D0310929E03B5
:1035100010929F031092A00360E085E00E94FD03DB
:1035200060E086E00E94FD0360E087E00E94FD030A
:1035300061E088E00E94FD0389EF95E00E94620B44
:10354000F09200018091C303882309F476C00E94A1
:10355000BE046B017C011091A10320E030E040EF3C
:1035600051E46091BB037091BC038091BD039091C5
:10357000BE030E94E61F18160CF027C111112CC0C3
:103580003092A103C0929D03D0929E03E0929F03CC
:10359000F092A00361E776E08FE394E00E94CC0410
:1035A0006091BB037091BC038091BD039091BE03F9
:1035B00041E00E94FB0B6BE676E08FE394E00E9413
:1035C000CC0441E060E070E080EF91E40E94FB0BEE
:1035D00080EB92EC0E94EB0B80919D0390919E03F7
:1035E000A0919F03B091A003C81AD90AEA0AFB0A66
:1035F000C0929903D0929A03E0929B03F0929C03AD
:103600008091B603811119C028EBC2162BE0D206B7
:10361000E104F10490F08091980381110EC0309282
:1036200098033092B0033092AF033092A903109206
:10363000010189E496E00E94620B8091B7039091AA
:10364000B803A091B903B091BA03A3019201281B5A
:10365000390B4A0B5B0BDA01C901883E9340A10587
:10366000B10508F444C04092B7035092B803609289
:10367000B9037092BA038091B603811129C0809179
:10368000B503882329F18091B1039091B203A091F1
:10369000B303B091B403A3019201281B390B4A0B69
:1036A0005B0BDA01C90180319742A105B10580F0B9
:1036B00086ED96E00E94620B0E94BE128093B603D4
:1036C0004092B1035092B2036092B3037092B4037C
:1036D0008091B603882309F4A2C00E94AD0E811127
:1036E00006C089EA96E00E94620B1092B6030E941F
:1036F000BE046B017C016091B00385E00E94FD0374
:103700006091010188E00E94FD038091AF0388234E
:1037100009F48AC08091AB039091AC03A091AD03F2
:10372000B091AE03A7019601281B390B4A0B5B0B26
:10373000DA01C901843F9140A105B10580F0609193
:10374000AA0363256093AA0386E00E94FD03C0924A
:10375000AB03D092AC03E092AD03F092AE03809144
:10376000A903882309F48EC08091A7039091A80330
:1037700002970CF460C061E087E00E94FD0340E026
:1037800050E0452B09F470CD0E945A05882309F4B6
:1037900069CD0E94000066CD64EF71E080E090E0AA
:1037A0000E948C040F5F1F4F1DCD81E594E00E94A5
:1037B000620B81E08093B5030E94BE128093B60332
:1037C0004DCD80E090E0DC012BCE1123A9F06DE21D
:1037D00076E08FE394E00E94CC046091BB0370918B
:1037E000BC038091BD039091BE0341E00E94FB0B9E
:1037F00080EB92EC0E94EB0B1092A10310929903C4
:1038000010929A0310929B0310929C0310929D03B6
:1038100010929E0310929F031092A0030ECF8DE88A
:1038200096E00E94620B63CF60E086E00E94FD0399
:103830001092AA0394CF8091A3039091A403A09126
:10384000A503B091A603A7019601281B390B4A0BCB
:103850005B0BDA01C9018A3F9105A105B10508F4A6
:103860008ECF6091A20363256093A20387E00E943C
:10387000FD03C092A303D092A403E092A503F092AB
:10388000A6037DCF60E087E00E94FD031092A203B3
:1038900076CF80E391E090930A05809309058091AB
:1038A0008A0390918B038950954071F4E0911C0537
:1038B000F0911D05908180911E058095892380835C
:1038C00010928B0310928A030895FB01DC0105908E
:1038D0000D920020E1F70895FC0105900020E9F722
:1038E000809590958E0F9F1F08950E94B71C08F435
:1038F00081E00895E89409C097FB3EF49095809587
:10390000709561957F4F8F4F9F4F9923A9F0F92FA5
:1039100096E9BB279395F695879577956795B79523
:10392000F111F8CFFAF4BB0F11F460FF1BC06F5F09
:103930007F4F8F4F9F4F16C0882311F096E911C01B
:10394000772321F09EE8872F762F05C0662371F03C
:1039500096E8862F70E060E02AF09A95660F771F50
:10396000881FDAF7880F9695879597F90895990F2C
:103970000008550FAA0BE0E8FEEF16161706E80739
:10398000F907C0F012161306E407F50798F0621B5A
:10399000730B840B950B39F40A2661F0232B242B2F
:1039A000252B21F408950A2609F4A140A6958FEF4E
:1039B000811D811D08950E94EE1C0C945F1D0E94C4
:1039C000511D38F00E94581D20F0952311F00C94E1
:1039D000481D0C944E1D11240C94931D0E94701DC3
:1039E00070F3959FC1F3950F50E0551F629FF00152
:1039F000729FBB27F00DB11D639FAA27F00DB11D6B
:103A0000AA1F649F6627B00DA11D661F829F2227F3
:103A1000B00DA11D621F739FB00DA11D621F839F7A
:103A2000A00D611D221F749F3327A00D611D231F50
:103A3000849F600D211D822F762F6A2F11249F579E
:103A400050409AF0F1F088234AF0EE0FFF1FBB1FA1
:103A5000661F771F881F91505040A9F79E3F510560
:103A600080F00C94481D0C94931D5F3FE4F3983E46
:103A7000D4F3869577956795B795F795E7959F5F0A
:103A8000C1F7FE2B880F911D9695879597F908959C
:103A900097F99F6780E870E060E008959FEF80EC01
:103AA000089500240A9416161706180609060895A4
:103AB00000240A9412161306140605060895092E0A
:103AC0000394000C11F4882352F0BB0F40F4BF2B79
:103AD00011F460FF04C06F5F7F4F8F4F9F4F0895B9
:103AE00057FD9058440F551F59F05F3F71F04795AF
:103AF000880F97FB991F61F09F3F79F08795089594
:103B0000121613061406551FF2CF4695F1DF08C0B2
:103B1000161617061806991FF1CF869571056105CF
:103B200008940895E894BB2766277727CB0197F977
:103B30000895052E97FB1EF400940E94B01D57FDBA
:103B400007D00E94EF1D07FC03D04EF40C94B01D6B
:103B500050954095309521953F4F4F4F5F4F0895B9
:103B600090958095709561957F4F8F4F9F4F0895E9
:103B70002F923F924F925F926F927F928F929F927D
:103B8000AF92BF92CF92DF92EF92FF920F931F936B
:103B9000CF93DF93CDB7DEB7CA1BDB0B0FB6F8941C
:103BA000DEBF0FBECDBF09942A88398848885F845C
:103BB0006E847D848C849B84AA84B984C884DF80CD
:103BC000EE80FD800C811B81AA81B981CE0FD11DB1
:103BD0000FB6F894DEBF0FBECDBFED010895A1E290
:103BE0001A2EAA1BBB1BFD010DC0AA1FBB1FEE1F77
:103BF000FF1FA217B307E407F50720F0A21BB30BC2
:103C0000E40BF50B661F771F881F991F1A9469F73D
:103C100060957095809590959B01AC01BD01CF0199
:103C2000089597FB072E16F4009407D077FD09D06E
:103C30000E94251E07FC05D03EF4909581959F4F6C
:103C40000895709561957F4F0895AA1BBB1B51E1A4
:103C500007C0AA1FBB1FA617B70710F0A61BB70BFC
:103C6000881F991F5A95A9F780959095BC01CD01A1
:103C70000895EE0FFF1F0590F491E02D0994505820
:103C8000BB27AA270E94571E0C945F1D0E94511D3E
:103C900038F00E94581D20F039F49F3F19F426F4A3
:103CA0000C944E1D0EF4E095E7FB0C94481DE92F93
:103CB0000E94701D58F3BA176207730784079507AF
:103CC00020F079F4A6F50C94921D0EF4E0950B2EDD
:103CD000BA2FA02D0B01B90190010C01CA01A0015E
:103CE0001124FF27591B99F0593F50F4503E68F1B9
:103CF0001A16F040A22F232F342F4427585FF3CFFA
:103D0000469537952795A795F0405395C9F77EF4CA
:103D10001F16BA0B620B730B840BBAF09150A1F013
:103D2000FF0FBB1F661F771F881FC2F70EC0BA0F99
:103D3000621F731F841F48F4879577956795B79521
:103D4000F7959E3F08F0B0CF9395880F08F099271C
:103D5000EE0F9795879508950E94511D60F080E8B9
:103D600091E009F49EEF0E94581D28F040E851E0D0
:103D700071F45EEF0CC00C944E1D0C94921DE92F53
:103D8000E0780E94701D40F3092E052AB1F3261732
:103D900037074807590738F00E2E07F8E02569F075
:103DA000E025E0640AC0EF6307F8009407FADB013E
:103DB000B9019D01DC01CA01AD01EF930E94351FDD
:103DC0000E945F1D0E94EF1E5F91552339F02BED7D
:103DD0003FE049E450FD49EC0C94401E0895DF9308
:103DE000DD27B92FBF7740E85FE3161617064807AF
:103DF0005B0718F4D92F0E94EB1F9F938F937F933B
:103E00006F930E943920E8E6F0E00E94BF1F0E94F5
:103E10005F1D2F913F914F915F910E94EE1CDD231A
:103E200051F09058A2EA2AED3FE049EC5FE3D078E8
:103E30005D270E94571EDF910C945F1D0E94321F68
:103E40000C945F1D0E94581D58F00E94511D40F0B7
:103E500029F45F3F29F00C94481D51110C94931DD7
:103E60000C944E1D0E94701D68F39923B1F35523E5
:103E700091F3951B550BBB27AA276217730784077D
:103E800038F09F5F5F4F220F331F441FAA1FA9F313
:103E900035D00E2E3AF0E0E832D091505040E69501
:103EA000001CCAF72BD0FE2F29D0660F771F881F62
:103EB000BB1F261737074807AB07B0E809F0BB0B55
:103EC000802DBF01FF2793585F4F3AF09E3F510569
:103ED00078F00C94481D0C94931D5F3FE4F3983EDA
:103EE000D4F3869577956795B795F7959F5FC9F752
:103EF000880F911D9695879597F90895E1E0660FD3
:103F0000771F881FBB1F621773078407BA0720F04B
:103F1000621B730B840BBA0BEE1F88F7E0950895B4
:103F20000E94781D88F09F5798F0B92F9927B751B4
:103F3000B0F0E1F0660F771F881F991F1AF0BA954D
:103F4000C9F714C0B13091F00E94921DB1E00895FC
:103F50000C94921D672F782F8827B85F39F0B93FEE
:103F6000CCF3869577956795B395D9F73EF4909500
:103F70008095709561957F4F8F4F9F4F0895DF9388
:103F8000CF931F930F93FF92EF92DF927B018C01EF
:103F9000689406C0DA2EEF010E94EE1CFE01E89440
:103FA000A5912591359145915591A6F3EF010E9478
:103FB000571EFE019701A801DA9469F7DF90EF9090
:103FC000FF900F911F91CF91DF9108950E94B71C30
:103FD00008F48FEF08959B01AC0160E070E080E889
:103FE0009FE30C941E1F19F416F40C944E1D0C94B0
:103FF00042200E94781DB8F39923C9F3B6F39F5766
:10400000550B87FF0E9450200024A0E640EA900153
:1040100080585695979528F4805C660F771F881F07
:1040200020F026173707480730F4621B730B840B08
:10403000202931294A2BA69517940794202531254C
:104040004A2758F7660F771F881F20F02617370773
:10405000480730F4620B730B840B200D311D411D9A
:10406000A09581F7B901842F9158880F969587956F
:1040700008959B01AC010C94DB1C0E94B71C880BBB
:10408000990B08959F3F31F0915020F487957795D3
:104090006795B795880F911D9695879597F908951F
:1040A00091505040660F771F881FD2F708950F93E5
:1040B0001F93CF93DF938230910510F482E090E05C
:1040C000E0912A05F0912B0530E020E0B0E0A0E07F
:1040D000309799F42115310509F44AC0281B390B92
:1040E00024303105D8F58A819B816115710589F1EC
:1040F000FB0193838283FE0111C0408151810281C3
:10410000138148175907E0F04817590799F4109799
:1041100061F012960C93129713961C933296CF016E
:10412000DF91CF911F910F91089500932A0510936D
:104130002B05F4CF2115310551F04217530738F004
:10414000A901DB019A01BD01DF01F801C1CFEF0137
:10415000F9CF90932B0580932A05CDCFFE01E20F76
:10416000F31F819391932250310939832883D7CF4C
:104170002091280530912905232B41F42091040139
:1041800030910501309329052093280520910201E3
:10419000309103012115310541F42DB73EB740910F
:1041A000060150910701241B350BE0912805F09181
:1041B0002905E217F307A0F42E1B3F0B2817390738
:1041C00078F0AC014E5F5F4F2417350748F04E0F73
:1041D0005F1F5093290540932805819391939FCFAA
:1041E000F0E0E0E09CCFCF93DF930097E9F0FC0193
:1041F000329713821282A0912A05B0912B05ED010E
:1042000030E020E01097A1F420813181820F931FCC
:1042100020912805309129052817390709F061C038
:10422000F0932905E0932805DF91CF910895EA01E5
:10423000CE17DF07E8F54A815B819E0141155105E4
:10424000B1F7E901FB83EA8349915991C40FD51F66
:10425000EC17FD0761F4808191810296840F951F10
:10426000E90199838883828193819B838A83F0E02B
:10427000E0E012968D919C9113970097B9F52D91DE
:104280003C911197CD010296820F931F2091280532
:10429000309129052817390739F6309751F51092D2
:1042A0002B0510922A05B0932905A0932805BCCFB1
:1042B000D383C28340815181840F951FC817D907CA
:1042C00061F44E5F5F4F88819981480F591F518378
:1042D00040838A819B81938382832115310509F074
:1042E000B0CFF0932B05E0932A059ECFFD01DC01B2
:1042F000C0CF13821282D7CFB0E0A0E0E2E8F1E2B3
:104300000C94BA1D8C01009751F4CB010E945720E8
:104310008C01C801CDB7DEB7E0E10C94D61DFC01DD
:10432000E60FF71F9C0122503109E217F30708F44A
:104330009DC0D901CD91DC911197C617D70798F090
:10434000C530D10530F3CE0104978617970708F3DF
:10435000C61BD70B2297C193D1936D937C93CF014A
:104360000E94F320D6CF5B01AC1ABD0A4C018C0E23
:104370009D1EA0912A05B0912B05512C412CF12CAA
:10438000E12C109731F58091280590912905881529
:10439000990509F05CC04616570608F058C0809190
:1043A000020190910301009741F48DB79EB74091AF
:1043B000060150910701841B950BE817F90708F0D7
:1043C00055C0F0932905E0932805F90171836083B6
:1043D000A0CF8D919C91119712966C901297139685
:1043E0007C901397A815B90559F56C0142E0C40EED
:1043F000D11CCA14DB0420F1AC014A195B09DA01B3
:104400001296159780F06282738251834083D9019E
:104410006D937C93E114F10471F0D7011396FC9332
:10442000EE93129776CF22968C0F9D1FF901918300
:104430008083F301EFCFF0932B05E0932A0569CF3A
:104440004816590608F42C017D01D3019ACFCB01FF
:104450000E9457207C01009749F0AE01B8010E94EC
:104460003922C8010E94F320870153CF10E000E0F9
:1044700050CFFB01DC0102C001900D924150504031
:10448000D8F70895FB01DC0101900D920020E1F7BF
:104490000895FB0151915523A9F0BF01DC014D9115
:1044A00045174111E1F759F4CD010190002049F081
:1044B0004D9140154111C9F3FB014111EFCF81E04E
:1044C00090E001970895AEE0B0E0E9E6F2E20C94E6
:1044D000C61D0D891E898F89988D26E02C831A832D
:1044E000098397FF02C080E090E801979E838D8347
:1044F000AE01455E5F4F698D7A8DCE0101960E94B7
:1045000093224D815E8157FD0AC02F813885421765
:1045100053070CF49A01020F131FF80110822E9614
:10452000E4E00C94E21DABE0B0E0E9E9F2E20C94C7
:10453000B81D7C013B018A01FC0117821682838130
:1045400081FFC8C1CE0101965C01F7019381F3019F
:1045500093FD859193FF81913F01882309F453C115
:10456000853239F493FD859193FF81913F01853226
:1045700029F4B70190E00E948324E7CF912C212CED
:10458000312CFFE1F31538F08B3211F190F48032C9
:1045900009F1833229F137FC3CC020ED280F2A3085
:1045A00050F536FE20C08AE0989E200D1124922EF0
:1045B00006C08D3291F0803371F7689430F8F301C2
:1045C00093FD859193FF81913F018111DACF21C045
:1045D000689431F8689432F8F2CF689433F8EFCFEA
:1045E000689434F8ECCFEAE02E9E200D1124222EA0
:1045F000689435F8E4CF8E3229F436FC04C168940F
:1046000036F8DDCF8C3619F4689437F8D8CF883671
:10461000B1F2982F9F7D95549330E0F08336A1F14D
:104620008337C1F1833509F063C02801F2E04F0EF2
:10463000511CF801C080D180692D70E036FC02C0A9
:104640006FEF7FEFC6010E946D244C01689437F82C
:1046500082010AC00C5F1F4FFFE3F9838824839413
:10466000912C6501E89437F833FE2DC0522C81144B
:10467000910471F5552009F468CFB70180E290E00C
:104680000E9483245A94F6CFF801808189830E5FBB
:104690001F4FE4CF2801F2E04F0E511CF801C080FB
:1046A000D180692D70E036FC02C06FEF7FEFC6014C
:1046B0000E9478244C018201D5CFB70180E290E0BE
:1046C0000E9483242A942814190409F0B0F7CECF4D
:1046D000F60137FC859137FE81916F01B70190E0BB
:1046E0000E94832451105A94F1E08F1A9108BFCF91
:1046F000843619F0893609F077C0F80137FE6BC0AF
:1047000060817181828193810C5F1F4FF32DFF7651
:104710003F2E97FF09C090958095709561957F4FCA
:104720008F4F9F4F689437F82AE030E0A5010E9430
:10473000B324C82ECA188C2C432C36FE0CC0E89427
:1047400040F8C91440F434FE05C032FC03C0F32D18
:10475000FE7E4F2E892C44FE95C0FE01EC0DF11D0E
:104760008081803309F087C0242D297E422E842D3C
:104770008870582E43FC95C040FE8FC09C2C82143C
:1047800018F42C0C922C981844FE91C0B70180E3C9
:1047900090E00E94832442FE09C088E790E041FE39
:1047A00002C088E590E0B7010E948324C91408F490
:1047B0008AC0CA94D12C9FEFC91AD90ACA0CDB1C33
:1047C000F60182916F01B70190E00E948324AC143E
:1047D000BD04B1F74FCF60817181072E000C880BAB
:1047E000990B0E5F1F4F92CFD32CE894D4F82AE098
:1047F00030E0853739F1232D297FD22E8F3601F114
:1048000048F48835A9F0F701868197812B96E2E17B
:104810000C94D41D803749F08837A9F7D4FE02C024
:104820006894D2F820E130E00DC06894D4F8F6CF57
:1048300034FE03C0822F8660D82E20E132E002C011
:1048400028E030E0F801D7FE0FC0608171818281DD
:1048500093810C5F1F4FA5010E94B324C82ECA1874
:104860003D2CE89437F867CF6081718190E080E05B
:104870000E5F1F4FF0CF42FC02C0839478CF839429
:10488000839475CF842D867809F471CFF6CFB70164
:1048900080E290E00E94832483948214C0F3512C20
:1048A00073CF522C5818821408F46ECFF8CF842D91
:1048B000867809F47BCF8BE241FE80E247FC8DE2F3
:1048C000B70190E071CFB70180E390E00E948324AC
:1048D0009A946CCF8FEF9FEF99CFFC0105906150B8
:1048E00070400110D8F7809590958E0F9F1F089506
:1048F000FC016150704001900110D8F780959095AF
:104900008E0F9F1F08950F931F93CF93DF93182F40
:10491000092FEB018B8181FD09C01FEF0FEF812F64
:10492000902FDF91CF911F910F91089582FF14C0B6
:104930002E813F818C819D81281739073CF4E881C5
:10494000F981CF0101969983888310838E819F819D
:1049500001969F838E83E3CFE885F985812F0995A2
:10496000892BA1F3DACFFA01AA27283051F120319F
:1049700081F1E8946F936E7F6E5F7F4F8F4F9F4FF3
:10498000AF4FB1E03ED0B4E03CD0670F781F891F35
:104990009A1FA11D680F791F8A1F911DA11D6A0F03
:1049A000711D811D911DA11D20D009F468943F91B6
:1049B0002AE0269F11243019305D3193DEF6CF01B5
:1049C0000895462F4770405D4193B3E00FD0C9F77B
:1049D000F6CF462F4F70405D4A3318F0495D31FDE8
:1049E0004052419302D0A9F7EACFB4E0A69597953B
:1049F000879577956795BA95C9F700976105710511
:104A000008959B01AC010A2E06945795479537955A
:104A10002795BA95C9F7620F731F841F951FA01DB4
:104A2000089513E0C9EAD3E004C0FE010E94391ED4
:0C4A30002196CA3AD107C9F7F894FFCFCD
:104A3C00010100002C058000000000009005F0042E
:104A4C001D05DD054E052C05400500000000840801
:104A5C005708B308150650083D082E080000000042
:104A6C001606F004B308150672068806FD050D0A35
:104A7C00006E616E00696E66006F7666007472750A
:104A8C00650066616C7365004152445F44524F5738
:104A9C0053494E4553535F303031007B2264657669
:104AAC006963655F6964223A222573222C2274693A
:104ABC006C745F616E676C65223A252E32662C220F
:104ACC0074696C745F6F7665725F74687265736815
:104ADC006F6C64223A25732C2274696C745F647554
:104AEC00726174696F6E5F6D73223A256C752C223E
:104AFC00627574746F6E5F70726573736564223A5D
:104B0C0025732C226C6F63616C5F616C6572745FD2
:104B1C0063616E646964617465223A25737D00314A
:104B2C0039322E3136382E312E3231002F73656EDC
:104B3C00736F7200504F53542025732048545450B7
:104B4C002F312E310D0A486F73743A2025733A2594
:104B5C00640D0A436F6E74656E742D547970653AEA
:104B6C00206170706C69636174696F6E2F6A736F0A
:104B7C006E0D0A436F6E74656E742D4C656E6774A2
:104B8C00683A2025640D0A436F6E6E656374696F15
:104B9C006E3A20636C6F73650D0A0D0A2573004124
:104BAC00542B43495053544152543D2254435022A8
:104BBC002C222573222C256400434F4E4E45435422
:104BCC000041542B434950434C4F53450041542B07
:104BDC0043495053454E443D2564003E0053454ED9
:104BEC0044204F4B005A54455F35475F6E69325233
:104BFC004A3900414864676A6941670041542B4354
:104C0C00574A41503D222573222C222573220057EE
:104C1C0049464920474F54204950004154004154C3
:104C2C0045300041542B43574D4F44453D31000016
:00000001FF
